:020000042000DA
:1000000000000120910100207F03002081030020D7
:1000100083030020850300208703002000000000E8
:100020000000000000000000000000008903002024
:100030008B030020000000008D030020CD0900206C
:1000400091030020930300209503002097030020D4
:10005000990300209B0300209D0300209F030020A4
:10006000A1030020A3030020A5030020A703002074
:10007000A9030020AB030020AD030020AF03002044
:10008000B1030020B3030020B5030020B703002014
:10009000B9030020BB030020BD030020BF030020E4
:1000A000C1030020C3030020C5030020C7030020B4
:1000B000C9030020CB030020CD030020CF03002084
:1000C000D1030020D3030020D5030020D703002054
:1000D000D9030020DB030020DD030020DF03002024
:1000E000E1030020E3030020E5030020E7030020F4
:1000F000E9030020EB030020ED030020EF030020C4
:10010000F1030020F3030020F5030020F703002093
:10011000F9030020FB030020FD030020FF03002063
:10012000010400200304002005040020070400202F
:10013000090400200B0400200D0400200F040020FF
:1001400011040020130400201504002017040020CF
:10015000190400201B0400201D0400201F0400209F
:10016000210400202304002025040020270400206F
:10017000290400202B0400202D0400202F0400203F
:1001800031040020330400200000000000000000C3
:100190004FF0000BDFF8BE020068DFF8B612096806
:1001A00001F0030100F01C00142801D14BF0020BF8
:1001B000002901D04BF0010BBBF1000F05D0A7487F
:1001C000A749DFF8722200F09FF8A64880470BF09D
:1001D000020ABAF1000F0CD0DFF86E02DFF86E12DF
:1001E00002680B680FB44FF000024FF0FF0302608B
:1001F0000B609D484FF000024FF00103022808D128
:10020000DFF83A120A60DFF83E120A60DFF83212B5
:100210000B60012808D1DFF82A120A60DFF82612E5
:100220000A60DFF81A120B609048002809D1904844
:100230009049914A00F030F890489149914A00F075
:100240002BF891489149924A00F026F8914892493A
:10025000DFF8E22100F058F8BBF1000F10D08F4812
:100260008F49DFF8D62100F04FF80BF0020ABAF1FF
:10027000000F05D00FBC02600B6000BFAFF3008021
:10028000DFF820020FF2030E00474FF000004FF09E
:100290000001DFF814F2FEE72DE9F841884225D08D
:1002A000B2EB010200D5FEE740EA010313F00303BD
:1002B00002D000F01DF819E04FF000039046121133
:1002C000F7D09A421CBFF0C8F0C103F10103F8D186
:1002D00008F00F08B8F1000F08D004780C7000F196
:1002E000010001F10101B8F10108F6D1BDE8F88182
:1002F00008B54FF0000303780B7000F1010001F125
:100300000101013AF7D108BD884237D000F0030659
:10031000002E14D04FF00405A5EB06044FF008079B
:1003200007FB06F8914669FA08F9002C07D080F817
:10033000009069FA07F900F10100013CF5E74FF080
:1003400000060F46091A88460911914614461546BB
:10035000B14206D018BFA0E8340206F10106B1424E
:10036000F8D108F00F08B8F1000F07D002704FEA7B
:10037000322200F10100B8F10108F4E77047FEE70E
:10038000FEE7FEE7FEE7FEE7FEE7FEE7FEE7FEE745
:10039000FEE7FEE7FEE7FEE7FEE7FEE7FEE7FEE735
:1003A000FEE7FEE7FEE7FEE7FEE7FEE7FEE7FEE725
:1003B000FEE7FEE7FEE7FEE7FEE7FEE7FEE7FEE715
:1003C000FEE7FEE7FEE7FEE7FEE7FEE7FEE7FEE705
:1003D000FEE7FEE7FEE7FEE7FEE7FEE7FEE7FEE7F5
:1003E000FEE7FEE7FEE7FEE7FEE7FEE7FEE7FEE7E5
:1003F000FEE7FEE7FEE7FEE7FEE7FEE7FEE7FEE7D5
:10040000FEE7FEE7FEE7FEE7FEE7FEE7FEE7FEE7C4
:10041000FEE7FEE7FEE7FEE7FEE7FEE7FEE7FEE7B4
:10042000FEE7FEE7FEE7FEE7FEE7FEE7FEE7FEE7A4
:10043000FEE7FEE7704700000000A2A2A2A2008033
:100440000340088003401080034030800340348024
:1004500003403880034018080240000000F00020EC
:1004600000000120F1040020000000000000000056
:10047000000000200000002090010020B0040020B7
:10048000B004002080120020801200208012002082
:10049000D0160020D0160020401700204017002062
:1004A00000F00020350E0020C907002000000000E9
:1004B00010B5054C237833B9044B13B10448AFF39E
:1004C00000800123237010BDD01600200000000022
:1004D0005012002008B5034B1BB103490348AFF38A
:1004E000008008BD00000000D4160020501200203B
:1004F0004FF602023B4B70B5D3F84C11914218D025
:10050000394A3849536943F4007353618B68EBB13E
:10051000FFF790FF354B33481A46816C21F4803148
:100520008164196841F0030119605368DB07FCD549
:1005300070BDD3F8982042F48072C3F89820D3F8A5
:10054000982022F08062C3F89820D9E7284A294BE6
:1005500012689C1C114603F1720533F8020FAB427E
:1005600041F8040BF9D1244B02F5077104F1F205AF
:1005700033F8020FAB4241F8040BF9D10123B4F870
:10058000F410B4F8F650C2F80014B4F8F800B4F857
:10059000FA10C2F80454C2F80804B4F8FC50C2F8C7
:1005A0000C14B4F8FE00B4F80011C2F81054B4F8FA
:1005B0000261C2F81404B4F80451C2F81814B4F873
:1005C0000601B4F80811C2F81C64C2F84054C2F81D
:1005D0004404C2F848141360D2F8E430002BFBD076
:1005E00096E700BF0080034000ED00E000200240DD
:1005F000640F0020660F0020D80F002030B4274B76
:1006000082B0D3F89820510126D4D3F89820D20490
:1006100013D4234B2348244C244A254903602360E8
:1006200013600B60234D2448244C254A25492B6038
:100630000460116002B030BC7047234A92E80300A6
:1006400002AA02E90300D3F89C2002A9C2F3821295
:100650000A4412F8082CCAB9D3F85011104A11F004
:10066000040F1A4B18BF13460E480F4A0F49036078
:1006700013600B600E4D0F4C11480F4A0F492B6051
:1006800023600360116002B030BC7047012A02D0C1
:1006900004480F4BE9E74FF40043E5E700800340CF
:1006A00080F0FA02801200209012002094120020A4
:1006B00084120020881200209812002020BCBE0066
:1006C0008C12002000E1F5055C0F002040787D01D0
:1006D00040420F002DE9F84F0025234EDFF898B077
:1006E000224FDFF898A0DFF89890DFF8988016E0A6
:1006F000682C21D0752C0FD1002000F0B7F94846A6
:1007000000F0E8FA306800F009FB404600F0E2FA39
:10071000DBF8000000F002FB154800F0DBFA00F007
:10072000A5FA044640B200F0B3FA642C08D0DFD832
:10073000302C01D0482CEFD1504600F0CBFAEBE73B
:100740000C4C3368AB42E7D929464FF480723868C5
:1007500000F06EFA204600F0BDFA00F087FA782823
:1007600005F58075D8D0ECE7141700209C12002006
:10077000741000202C110020081700208410002085
:100780000811002018110020002210B5094BDA666C
:10079000FFF734FF00F02CF902220749074800F068
:1007A0002DF8BDE8104001231A220549054800F044
:1007B00067B800BF0080034000200050EC16002006
:1007C00000100050F8160020002208B5074B1A60F0
:1007D000FFF7DAFF064800F07DFA064800F07AFAE3
:1007E000054800F077FAFFF775FF00BFF416002008
:1007F00060110020841000207410002070B506469F
:100800000C460160027101F180052046002104348C
:1008100000F0F8FAA542F8D13379012B04D0022B6D
:1008200026D07BB100BE70BD30684FF6FF718030BE
:1008300000F0D0FA30684FF6FF71BDE870408430A8
:1008400000F0C8BA3068FF21803000F0DBFA306871
:10085000FF21843000F0D6FA3068FF21883000F0A4
:10086000D1FA3068FF21BDE870408C3000F0CABA80
:1008700030684FF0FF31BDE87040803000F092BA30
:100880002DE9F0410E4617461D46044670B1072D6E
:1008900000D900BEB7F5005F00D300BE24B1072D1C
:1008A00002D8B7F5005F03D3BDE8F08100BEEEE7E4
:1008B00006F108084046F9B200F0A4FA791101F4F3
:1008C000FF61294306F10C0000F09CFA26604046C7
:1008D00000F09AFA236886B203F10C0000F094FA53
:1008E00000F0F80346EA4316B74200F0070000D0D4
:1008F00000BE854205D000BE03E02068043000F051
:1009000083FA2068103000F07FFA8307F5D40023C3
:100910002371BDE8F08100BF70B50446C0B1A9B134
:1009200002B900BE8CB181B17AB1013A8E184D1E68
:100930002068103000F068FAC307F9D515F8011FD8
:10094000206800F05FFAAE42F2D170BD00BEE7E76A
:1009500000BE0029E4D1F9E72DE9F0410F46164623
:10096000044658B147B106B900BE0CB107B14EB943
:1009700000252846BDE8F08100BEF4E700BE002F48
:10098000F1D1F9E72068103000F03EFA23798207B0
:1009900043EA00032371EBD5013E3E4407F1FF38E3
:1009A00001E0B045E5D020684546043000F02CFA5F
:1009B00008F8010F20680235103000F025FA23797D
:1009C000ED1B034323718307D3D5EAE70649074BA1
:1009D0000A6801320A601A680A321A601A68092A1B
:1009E0009CBF00221A6070470417002000170020E7
:1009F00038B5FFF703FE0A4B0A4A1B68A2FB032324
:100A00005B09013BB3F1807F09D2F025002007216B
:100A1000054A064C536084F823509060116038BD3D
:100A2000801200201F85EB5110E000E000ED00E097
:100A300010B504460B4800F04DF904F1300040B207
:100A400000F026F93A2000F023F9202000F020F9E8
:100A5000054804EB440400EBC400BDE8104000F07E
:100A600039B900BF88110020B811002001232DE9F9
:100A7000F04FDFF804B1054685B0CBF80030002810
:100A800069D00024002D48D00134042CFAD1039AF7
:100A9000334B9A4259D10024002D48D00134042C04
:100AA000FAD10024039B0193002D3BD00134042C88
:100AB000FAD12C4ADDF80C902B4BC2F80090019A29
:100AC00097081A6015D0002607F1205707F5002770
:100AD000DFF8A8A0BF000DF10C080024C5B1013457
:100AE000042CFBD1039A4AF8042B57451644F4D141
:100AF000B144B9F1000F1FD11C4800F0EBF81C4BBA
:100B0000019A1A600023CBF8003005B0BDE8F08FE1
:100B100000F0CEF808F80400E1E700F0C9F803ABF4
:100B20001855B1E700F0C4F803AB1855BEE700F064
:100B3000BFF803AB1855B1E70220FFF779FF002398
:100B4000CBF8003005B0BDE8F08F002005B0BDE85F
:100B5000F04FFFF76DBF074800F0BCF891E700BF0A
:100B6000FECA88470817002014170020B41100207F
:100B700010170020941100200C170020000020A066
:100B800038B5074800F0A6F80024064D204600F0CE
:100B9000E7F80134284600F09DF8102CF6D138BD56
:100BA000181200202812002070B504460D480D468A
:100BB00000F090F8204600F0B1F80B4800F08AF8F9
:100BC0000A4E6C1E0F3514F8010F00F0C9F83046BC
:100BD00000F080F8AC42F6D10248BDE8704000F069
:100BE00079B800BF2C1200203012002028120020FB
:100BF00070B504460B480D4600F06CF8204600F036
:100C00008DF8094800F066F8084E6C1E0F3514F98F
:100C1000010F00F03DF8304600F05CF8AC42F6D130
:100C200070BD00BF2C1200203012002028120020BE
:100C30002DE9F04117464618FFF7A2FF8FB10024B7
:100C4000DFF824803519404600F044F8294628464C
:100C5000FFF7AAFF103429462846FFF7C9FFA7422D
:100C6000F0D8BDE8F08100BF3412002010B5074C69
:100C700082B0012220460DF10701FFF76DFE10F052
:100C8000FF0FF6D09DF8070002B010BDF816002047
:100C9000034600B583B0012204480DF107018DF829
:100CA0000730FFF739FE03B05DF804FBF8160020AB
:100CB00010B5074C82B0012220460DF10701FFF765
:100CC0004BFE10F0FF0FF6D09DF9070002B010BDEB
:100CD000F8160020F0B5054615F9014B83B0C4B1F4
:100CE0000D270D4E0AE0012230460DF107018DF867
:100CF0000740FFF711FE15F9014B54B10A2CF2D150
:100D0000012230460DF107018DF80770FFF704FE50
:100D1000E9E703B0F0BD00BFF8160020F0B50546C6
:100D200083B00C481C24FFF7D5FF0B4F0B4E25FA60
:100D300004F303F00F03FB5C01223046043C0DF189
:100D400007018DF80730FFF7E7FD231DEFD103B052
:100D5000F0BD00BF381200203C120020F816002021
:100D600070B504460D4E0E4DC0F3031382B0F35C14
:100D700028460DF10701012204F00F048DF8073019
:100D8000FFF7CAFD335D284601220DF107018DF8FA
:100D90000730FFF7C1FD02B070BD00BF3C1200205C
:100DA000F816002001607047006870470EB503FA1E
:100DB00001F303EA020301686FEA020201EA020199
:100DC00041EA030101600EBD006800EA020020FA5A
:100DD00001F0704701807047008870470EB503FA34
:100DE00001F303EA020301886FEA020201EA020149
:100DF00041EA030101800EBD008800EA020020FAEA
:100E000001F0704701707047007870470EB503FA23
:100E100001F303EA020301786FEA020201EA020128
:100E200041EA030101700EBD007800EA020020FAD9
:100E300001F0704770B50D4E0D4D761BB61006D003
:100E4000002455F8043B01349847A642F9D1094ED5
:100E5000094D00F0FDF9761BB61006D0002455F8B8
:100E6000043B01349847A642F9D170BD68120020B6
:100E7000681200207012002068120020024B13B18B
:100E8000024800F005B87047000000009D0E0020E9
:100E9000002301461A46184600F01AB838B5084B28
:100EA000084D5B1B9C1007D0043B1D44013C55F8CA
:100EB00004399847002CF9D1BDE8384000F0CEB98C
:100EC0007412002070120020704700BF704700BFEE
:100ED0002DE9F047DFF880A00646DAF800009846D2
:100EE0000F469146FFF7F0FF1A4B1B68D3F84841B5
:100EF00024B365681F2D26DC5EB96B1C0235DAF859
:100F00000000636044F82570FFF7E0FF0020BDE8B3
:100F1000F087012304EB8501C1F88890D4F888217B
:100F2000AB401A43022EC4F88821C1F80881E4D1ED
:100F3000D4F88C211343C4F88C31DEE703F5A67492
:100F4000C3F84841D5E7DAF80000FFF7BFFF4FF0DC
:100F5000FF30DCE74C120020C81600200001000121
:100F60000202030300080240000000000811900282
:100F70000200000001009F0900003333FFFF777774
:100F8000FF0F010000420800530944000000000068
:100F900080026500E5010200280078012300330D7E
:100FA000040000000033000000000C0400000000FA
:100FB0000000020000008040F8800700F880070071
:100FC00000020000000004000300400000000000D8
:100FD0000000000009030100000000000000800084
:100FE00000000000030000000000000000000000FE
:100FF0000B00000000000000000080000420000141
:1010000008000000000000000000000001000000D7
:1010100000000000000000005040010514500000D6
:10102000080018000000050000000000000000009B
:1010300000000000000000005000010510500000FA
:10104000000000000000000000004300000003005A
:10105000010001000000000000000100000000008D
:101060000000000000000000000000000000000080
:10107000000000000D0A43524541544956452D4297
:1010800052443E00417661696C61626C6520434D5B
:1010900044733A0A20683A2048656C700A20753A11
:1010A0002055706C6F61642062696E617279206690
:1010B000696C65200A20643A20446973706C617918
:1010C0002055706C6F616465642066696C65206989
:1010D0006E20646472206D656D6F72790A20623AC9
:1010E000204C6F616420616E64204578656375747F
:1010F000652062696E6172792066696C65202044A2
:101100004452200A000000000D0A2046696C652048
:1011100053697A65203A20000D0A2046696C6520E3
:10112000436865636B73756D203A2000205C720A1A
:10113000507265737320616E79206B657920746FCE
:1011400020636F6E74696E7565202C2070726573F4
:10115000732027782720746F206578697420000039
:101160000A0A0A3C3C20536D617274667573696F9C
:101170006E32205541525420446F776E6C6F61641B
:101180006572203E3E0A0A00070A4552524F525FDE
:10119000000000004177616974696E67206E656FB9
:1011A000727633325F6578652E62696E2E2E2E2040
:1011B000000000004F4B0000657865207369676E82
:1011C0006174757265206661696C00000000000042
:1011D000657863656564696E6720494D454D206398
:1011E0006170616369747900636865636B73756DC1
:1011F000206661696C000000000000000000000033
:1012000053504920666C6173682061636365737332
:10121000206661696C6564000D0A20202020202072
:10122000202020202020200020000000202000007E
:101230007C2000000D0A000030780000303132338D
:10124000343536373839414243444546A0120020F0
:10125000F8B500BFF8BC08BC9E467047F8B500BFA3
:10126000F8BC08BC9E4670477D0E0020D5040020C7
:10127000B104002000000000000000000000000099
:1012800080F0FA0280F0FA0280F0FA0200E1F5053F
:1012900080F0FA0280F0FA0220BCBE00000020A01C
:1012A000000000008C150020F41500205C160020C2
:1012B000000000000000000000000000000000002E
:1012C000000000000000000000000000000000001E
:1012D000000000000000000000000000000000000E
:1012E00000000000000000000000000000000000FE
:1012F00000000000000000000000000000000000EE
:1013000000000000000000000000000000000000DD
:1013100000000000000000000000000000000000CD
:1013200000000000000000000000000000000000BD
:1013300000000000000000000000000000000000AD
:10134000000000000000000001000000000000009C
:101350000E33CDAB34126DE6ECDE05000B00000061
:10136000000000000000000000000000000000007D
:10137000000000000000000000000000000000006D
:10138000000000000000000000000000000000005D
:10139000000000000000000000000000000000004D
:1016C00000000000000000001817002000000000CB
:040000052000019145
:00000001FF
