:020000042000DA
:1000000000000120910100207F03002081030020D7
:1000100083030020850300208703002000000000E8
:100020000000000000000000000000008903002024
:100030008B030020000000008D030020811E0020A3
:1000400091030020930300209503002097030020D4
:10005000990300209B0300209D0300209F030020A4
:10006000A1030020A3030020A5030020A703002074
:10007000A9030020AB030020AD030020AF03002044
:10008000B1030020B3030020B5030020B703002014
:10009000B9030020BB030020BD030020BF030020E4
:1000A000C1030020C3030020C5030020C7030020B4
:1000B000C9030020CB030020CD030020CF03002084
:1000C000D1030020D3030020D5030020D703002054
:1000D000D9030020DB030020DD030020DF03002024
:1000E000E1030020E3030020E5030020E7030020F4
:1000F000E9030020EB030020ED030020EF030020C4
:10010000F1030020F3030020F5030020F703002093
:10011000F9030020FB030020FD030020FF03002063
:10012000010400200304002005040020070400202F
:10013000090400200B0400200D0400200F040020FF
:1001400011040020130400201504002017040020CF
:10015000190400201B0400201D0400201F0400209F
:10016000210400202304002025040020270400206F
:10017000290400202B0400202D0400202F0400203F
:1001800031040020330400200000000000000000C3
:100190004FF0000BDFF8BE020068DFF8B612096806
:1001A00001F0030100F01C00142801D14BF0020BF8
:1001B000002901D04BF0010BBBF1000F05D0A7487F
:1001C000A749DFF8722200F09FF8A64880470BF09D
:1001D000020ABAF1000F0CD0DFF86E02DFF86E12DF
:1001E00002680B680FB44FF000024FF0FF0302608B
:1001F0000B609D484FF000024FF00103022808D128
:10020000DFF83A120A60DFF83E120A60DFF83212B5
:100210000B60012808D1DFF82A120A60DFF82612E5
:100220000A60DFF81A120B609048002809D1904844
:100230009049914A00F030F890489149914A00F075
:100240002BF891489149924A00F026F8914892493A
:10025000DFF8E22100F058F8BBF1000F10D08F4812
:100260008F49DFF8D62100F04FF80BF0020ABAF1FF
:10027000000F05D00FBC02600B6000BFAFF3008021
:10028000DFF820020FF2030E00474FF000004FF09E
:100290000001DFF814F2FEE72DE9F841884225D08D
:1002A000B2EB010200D5FEE740EA010313F00303BD
:1002B00002D000F01DF819E04FF000039046121133
:1002C000F7D09A421CBFF0C8F0C103F10103F8D186
:1002D00008F00F08B8F1000F08D004780C7000F196
:1002E000010001F10101B8F10108F6D1BDE8F88182
:1002F00008B54FF0000303780B7000F1010001F125
:100300000101013AF7D108BD884237D000F0030659
:10031000002E14D04FF00405A5EB06044FF008079B
:1003200007FB06F8914669FA08F9002C07D080F817
:10033000009069FA07F900F10100013CF5E74FF080
:1003400000060F46091A88460911914614461546BB
:10035000B14206D018BFA0E8340206F10106B1424E
:10036000F8D108F00F08B8F1000F07D002704FEA7B
:10037000322200F10100B8F10108F4E77047FEE70E
:10038000FEE7FEE7FEE7FEE7FEE7FEE7FEE7FEE745
:10039000FEE7FEE7FEE7FEE7FEE7FEE7FEE7FEE735
:1003A000FEE7FEE7FEE7FEE7FEE7FEE7FEE7FEE725
:1003B000FEE7FEE7FEE7FEE7FEE7FEE7FEE7FEE715
:1003C000FEE7FEE7FEE7FEE7FEE7FEE7FEE7FEE705
:1003D000FEE7FEE7FEE7FEE7FEE7FEE7FEE7FEE7F5
:1003E000FEE7FEE7FEE7FEE7FEE7FEE7FEE7FEE7E5
:1003F000FEE7FEE7FEE7FEE7FEE7FEE7FEE7FEE7D5
:10040000FEE7FEE7FEE7FEE7FEE7FEE7FEE7FEE7C4
:10041000FEE7FEE7FEE7FEE7FEE7FEE7FEE7FEE7B4
:10042000FEE7FEE7FEE7FEE7FEE7FEE7FEE7FEE7A4
:10043000FEE7FEE7704700000000A2A2A2A2008033
:100440000340088003401080034030800340348024
:1004500003403880034018080240000000F00020EC
:1004600000000120F1040020000000000000000056
:10047000000000200000002090010020B0040020B7
:10048000B00400204892002050920020509200209A
:10049000209C0020209C002080A8002080A8002014
:1004A00000F00020B1320020490A002000000000C6
:1004B00010B5054C237833B9044B13B10448AFF39E
:1004C00000800123237010BD209C0020000000004C
:1004D0001892002008B5034B1BB103490348AFF342
:1004E000008008BD00000000249C0020189200201D
:1004F00080B582B000AF00F0BBF9154B5B69144AC0
:1005000043F400735361134B9B68002B05D1124BCE
:100510001B681946114800F012F9FFF78BFF0D4BCD
:100520009B6C0C4A23F4803393640D4B1B680C4A7C
:1005300043F0030313600A4B5B6803F001037B6025
:100540007B68002BF7D000BF00BF0837BD4680BDD9
:1005500000ED00E000800340D0880020D488002017
:100560000020024080B588B000AF314BD3F89830FE
:1005700003F08063FB61FB69002B4ED12C4BD3F859
:10058000983003F480537B617B69002B15D1294B94
:10059000294A1A60294B284A1A60294B264A1A60B0
:1005A000284B294A1A60294B234A1A60284B224AB1
:1005B0001A60284B284A1A6036E0284A3B1D92E808
:1005C000030083E803001A4BD3F89C309B0903F027
:1005D00007033B613A1D3B6913441B78FB73FB7BAC
:1005E000022B12D0022B14DC002B02D0012B07D0DF
:1005F0000FE000F037F8B861B86900F051F813E087
:100600004FF4004000F04CF80EE0154800F048F8B8
:100610000AE0134800F044F806E000F023F8B8615F
:10062000B86900F03DF8FFE700BF2037BD4680BD48
:10063000008003405092002080F0FA025492002083
:10064000589200205C92002020BCBE0060920020E6
:10065000649200206892002000E1F505E089002006
:1006600040420F0080B483B000AF0A4BD3F8503142
:1006700003F004033B603B68002B02D1064B7B6018
:1006800001E0064B7B607B6818460C37BD4680BC9A
:10069000704700BF0080034040787D0180F0FA027F
:1006A00080B483B000AF78600C4A7B6813600C4A5A
:1006B0007B6813600B4A7B6813600B4B0B4A1A6014
:1006C0000B4A7B6813600B4A7B6813600A4A7B689D
:1006D000136000BF0C37BD4680BC704750920020AD
:1006E00054920020589200205C92002020BCBE0052
:1006F00060920020649200206892002080B487B04D
:1007000000AFF860B9607A6000237B610DE07B691F
:100710005B00BA68134419887B699B00FA6813442C
:100720000A461A607B6901337B617A697B689A4269
:10073000EDD300BF00BF1C37BD4680BC704780B5FD
:1007400084B000AF786039607B68FB603B68BB6059
:100750003922F968B868FFF7D1FF7B687233FB6014
:100760003B6803F50773BB604122F968B868FFF77F
:10077000C5FF7B68B3F8F4301A463B68C3F8002421
:100780007B68B3F8F6301A463B68C3F804247B68EC
:10079000B3F8F8301A463B68C3F808247B68B3F80E
:1007A000FA301A463B68C3F80C247B68B3F8FC3077
:1007B0001A463B68C3F810247B68B3F8FE301A462B
:1007C0003B68C3F814247B68B3F800311A463B68D1
:1007D000C3F818247B68B3F802311A463B68C3F8A3
:1007E0001C247B68B3F804311A463B68C3F84024E4
:1007F0007B68B3F806311A463B68C3F844247B682B
:10080000B3F808311A463B68C3F848243B68012214
:100810001A6000BF3B68D3F8E430002BFAD000BF69
:1008200000BF1037BD4680BD80B483B000AF0E4B13
:10083000D3F84C313B603B684FF60202934204D040
:100840003B680A4A934203D005E001237B6005E040
:1008500002237B6002E000237B6000BF7B681846B8
:100860000C37BD4680BC70470080034002F8010091
:1008700080B582B000AFFFF7D7FF78607B68012BAF
:1008800002D100F007F800E000BF00BF0837BD4606
:1008900080BD000080B400AF094BD3F89830084AFF
:1008A00043F48073C2F89830054BD3F89830044A6B
:1008B00023F08063C2F8983000BFBD4680BC70470B
:1008C0000080034080B483B000AF78604FF0FF3306
:1008D00018460C37BD4680BC704780B483B000AF6B
:1008E0007860FEE780B483B000AF786039603B6821
:1008F0004FF400525A60002318460C37BD4680BCA6
:10090000704780B483B000AF7860012318460C377D
:10091000BD4680BC704780B485B000AFF860B96058
:100920007A60002318461437BD4680BC704780B4F7
:1009300085B000AFF860B9607A60002318461437BC
:10094000BD4680BC7047000080B584B000AFF86041
:10095000B9607A603B60104B1B68002B10D10F4BC5
:100960001B680F4AA2FB03231B0D9BB2013B9AB2EB
:1009700001230C490C4800F0BBF9074B01221A6017
:100980003B681A467968084800F039FA3B6818460F
:100990001037BD4680BD00BF3C9C00205492002013
:1009A000C5B3A29100100050409C002080B586B0D5
:1009B00000AF78601F4B1B68002B02D11D4B1E4AF5
:1009C0001A601C4B1B687B61EFF308833B61194B7A
:1009D0001B683A699A420FD9164B1A687B68134410
:1009E0003A699A421AD21923144A01210020FFF7CA
:1009F000ABFF0120FFF771FF114BFB600D4B1A6835
:100A00007B681344FA689A4208D219230D4A0121DF
:100A10000020FFF799FF0120FFF75FFF054B1A68E1
:100A20007B681344034A13607B6918461837BD4638
:100A300080BD00BF489C002080A80020E8890020DD
:100A400000F00020048A002080B586B000AF0023AB
:100A50007B6100F0E9F801F0B7F8054801F0C0FA51
:100A600000F0D8F800F006F800F00EF8FCE700BF40
:100A7000188A002080B500AF024801F0B1FA00BF2B
:100A800080BD00BF448A002080B5A4B000AF002321
:100A9000C7F888304FF48073C7F884304FF40053A0
:100AA000C7F88030002387F87F300023BB6701F050
:100AB00053FA034687F8773097F97730184601F0F4
:100AC00063FA97F877304C3B2C2B00F2988001A208
:100AD00052F823F09F0B0020FF0B0020FF0B00209B
:100AE000FF0B0020FF0B0020FF0B0020FF0B00205E
:100AF000FF0B0020FF0B0020FF0B0020FF0B00204E
:100B0000FF0B0020FF0B0020FF0B0020FF0B00203D
:100B1000FF0B0020FF0B0020FF0B0020FF0B00202D
:100B2000FF0B0020FF0B0020FF0B0020FF0B00201D
:100B3000FF0B0020A50B0020FF0B0020FF0B002067
:100B4000FF0B0020890B00208F0B0020FF0B0020E3
:100B5000FF0B00209F0B0020FF0B0020FF0B00204D
:100B6000FF0B0020FF0B0020FF0B0020FF0B0020DD
:100B7000FF0B0020FF0B0020950B0020FF0B002037
:100B8000FF0B0020D70B002000F044F837E001F005
:100B90007BF834E001F0A0F8C7F88C002FE000F0FB
:100BA00043FF2CE000F040FF164801F019FA01F075
:100BB000D3F9034687F8773097F97730184601F074
:100BC000E3F997F87730303B3B673B6FDBB2184671
:100BD00001F0B6F813E0D7F88C30002B0BD00A4B9D
:100BE0001B680A4A1168D7F88C20184602F084FB6B
:100BF00001F036FF02E0064801F0F2F900BFFFF70E
:100C000039FF54E7548A0020709200206C92002033
:100C1000808A002080B500AF024801F0E1F900BFF2
:100C200080BD00BFB08A002080B500AF274B0022F6
:100C3000DA66FFF797FC01F03FF9022224492548C4
:100C400000F07CF905220021224800F0E2F905229B
:100C50000121204800F0DDF9052202211D4800F0A5
:100C6000D8F9052203211B4800F0D3F905220421FD
:100C7000184800F0CEF905220521164800F0C9F900
:100C800005220621134800F0C4F902220721114869
:100C900000F0BFF9104B1B68104AA2FB03231B0D89
:100CA0009BB2013B9AB201230D490E4800F020F897
:100CB00020220D490D4800F0D3F90C4800F031FA1C
:100CC0000A4800F0A5FC00BF80BD00BF00800340C3
:100CD00000400050F8A7002054920020C5B3A29114
:100CE0000010005000A800200060005008A800205C
:100CF00080B586B000AFF860B96011461A460B4661
:100D0000FB8013467B71FB68002B00D100BE7B7912
:100D1000072B00D900BEFB88B3F5005F00D300BEEF
:100D2000FB68002B67D07B79072B64D8FB88B3F571
:100D3000005F60D2BB680833FA88D2B21146184609
:100D400001F0D0FEBB6803F10C007A79FB885B11DF
:100D500003F4FF631343194601F0C4FEFB68BA684D
:100D60001A60FB681B680833184601F0BDFE034695
:100D7000BB82FB681B680C33184601F0B5FE0346C6
:100D8000FB74FB7C23F00703BB74BB7C9BB25B0151
:100D90009AB2BB8A1343BB82FB7C03F00703FB744C
:100DA000BA8AFB889A4200D000BEFA7C7B799A42CC
:100DB00000D000BEFB681B681033184601F094FE9B
:100DC000034603F00203FB750FE0FB681B68043366
:100DD000184601F089FEFB681B681033184601F0C5
:100DE00083FE034603F00203FB75FB7D002BECD171
:100DF000FB6800221A7100BF1837BD4680BD80B560
:100E000086B000AFF860B9607A60FB68002B00D153
:100E100000BEBB68002B00D100BE7B68002B00D158
:100E200000BEFB68002B25D0BB68002B22D07B685E
:100E3000002B1FD000237B6118E0FB681B68103378
:100E4000184601F051FE034603F00103FB74FB7CDE
:100E5000002BF2D0FB681868BA687B6913441B78D2
:100E6000194601F03FFE7B6901337B617A697B683B
:100E70009A42E2D300BF1837BD4680BD90B589B015
:100E800000AFF860B9607A600023BB61FB68002B9B
:100E900000D100BEBB68002B00D100BE7B68002BD8
:100EA00000D100BEFB68002B43D0BB68002B40D0B4
:100EB0007B68002B3DD00023BB61FB681B681033AF
:100EC000184601F011FE0346FB75FB681A79FB7D9D
:100ED0001343DAB2FB681A71FB7D03F00203FB7760
:100EE00020E0FB681B68191DBA68BB69D418084666
:100EF00001F0FAFD03462370BB690133BB61FB6857
:100F00001B681033184601F0EFFD0346FB75FB68C4
:100F10001A79FB7D1343DAB2FB681A71FB7D03F08B
:100F20000203FB77FB7F002B03D0BA697B689A42F0
:100F3000D7D3BB6918462437BD4690BD80B586B06F
:100F400000AFF860B9601346FB710023FB75BB6806
:100F50003B61FB68BA681A60FB68FA791A71002372
:100F6000FB75BB683B6109E00021386901F0BAFDFF
:100F70003B6904333B61FB7D0133FB75FB7D1F2B1C
:100F8000F2D9FB681B79022B06D0022B3BDC002B2D
:100F90001CD0012B09D036E0FB681B6880334FF072
:100FA000FF31184601F06EFD2FE0FB681B688033AF
:100FB0004FF6FF71184601F07DFDFB681B68843316
:100FC0004FF6FF71184601F075FD1EE0FB681B68C7
:100FD0008033FF21184601F085FDFB681B688433D0
:100FE000FF21184601F07EFDFB681B688833FF2156
:100FF000184601F077FDFB681B688C33FF2118460B
:1010000001F070FD01E000BE00BF00BF1837BD4613
:1010100080BD80B586B000AFF8600B467A60FB7289
:10102000FB7A1F2B00D900BEFB7A1F2B14D8FB685C
:101030001B687B61FB7A9B001A467B6913447B61CA
:101040007968786901F01EFD786901F01DFD02469E
:101050007B68934200D000BE00BF1837BD4680BDFC
:1010600080B584B000AFF860B9601346FB80FB68C0
:10107000002B00D100BEBB68002B00D100BEFB8856
:10108000202B00D900BEFB88002B00D100BEFB68DE
:10109000002B42D0BB68002B3FD048220021F868CB
:1010A00002F0A0F9FB68BA681A60FB88202B07D809
:1010B000FB88002B04D0FB68FA88A3F8442003E0E7
:1010C000FB680122A3F84420FB6818680023012272
:1010D000002101F00BFDFB681B682433002118463A
:1010E00001F000FDFB681B681C330321184601F06A
:1010F000F9FCFB681B680433FF21184601F0F2FC81
:10110000FB681B6818330021184601F0EBFCFB68F4
:101110001B680321184601F0E5FC00BF1037BD46EF
:1011200080BD80B582B000AF78607B68002B00D1B5
:1011300000BE7B68002B25D07B6818680023012245
:10114000002101F0D3FC7B68002283F846207B68F5
:101150001B681C330321184601F0C4FC7B681B6824
:101160000433FF21184601F0BDFC7B681B6818336F
:101170000021184601F0B6FC7B681B680321184665
:1011800001F0B0FC00BF0837BD4680BD80B584B01B
:1011900000AF78600B46FB700023FB737B68002B6D
:1011A00000D100BEFB78072B00D900BE7B68002B66
:1011B00031D0FB78072B2ED87B681B6802220121D7
:1011C000184601F0A1FC0346002B24D07B681B6865
:1011D000203310220421184601F096FC0346012B0F
:1011E00002D1786800F02AFA7B681B68243318461D
:1011F00001F07AFC03461946FB78012202FA03F358
:10120000DBB20B43FB737B681B682433FA7B11460C
:10121000184601F067FC00BF1037BD4680BD80B5A1
:1012200084B000AF78600B46FB700023FB737B68D3
:10123000002B00D100BEFB78072B00D900BE7B68D5
:10124000002B33D0FB78072B30D87B681B68022239
:101250000121184601F058FC0346002B26D07B687C
:101260001B68203310220421184601F04DFC034670
:10127000012B02D1786800F0E1F97B681B68243308
:10128000184601F031FC03461946FB78012202FAA8
:1012900003F3DBB2DB43DBB20B40FB737B681B6801
:1012A0002433FA7B1146184601F01CFC00BF1037AE
:1012B000BD4680BD80B588B000AFF860B9603B60C6
:1012C0001346FB8000237B610023FB830023BB8349
:1012D00000237B8300233B83FB68002B00D100BEEF
:1012E000FB68002B00F09081FB681B680222012143
:1012F000184601F009FC0346002B00F08581FA88AE
:101300003B8D1344002B00F07F81FA883B8D134402
:10131000013B7B61FB681B681C330321184601F00D
:10132000E1FBFB681B68203310220421184601F002
:10133000EBFB0346012B02D1F86800F07FF9FB6854
:10134000186800230122002101F0D0FB1CE0BA8BB9
:10135000FB889A420BD2FB681B6803F10C00BB8B25
:10136000BA6813441B78194601F08CFB06E0FB6851
:101370001B680C330021184601F084FB3B8B0133C2
:101380003B83BB8B0133BB83BB8B7A699A4205D904
:10139000FB68B3F84430BA8B9A42D8D3BB8B7A69D6
:1013A0009A4222D1FB68B3F84430BA8B9A421CD2DD
:1013B000BA8BFB889A420BD2FB681B6803F12800AA
:1013C000BB8BBA6813441B78194601F05BFB06E03F
:1013D000FB681B6828330021184601F053FB3B8B48
:1013E00001333B83BB8B0133BB83FB68186801234C
:1013F0000122002101F07AFB3DE0FB68B3F84430A4
:101400003A8B9A4220D2BB8B7A699A420BD1FB6805
:101410001B6803F12800BB8BBA6813441B7819467C
:1014200001F030FB0AE0FB681B6803F10C00BB8B8A
:10143000BA6813441B78194601F024FBBB8B0133B7
:10144000BB833B8B01333B83FB681B682033042247
:101450000221184601F058FB0346002B0BD1FB6814
:101460001B680833184601F00FFBFB8B0133FB832D
:101470003B8B013B3B83BA8BFB889A42BDD32DE06B
:10148000FB68B3F844303A8B9A4210D2BB8B7A692E
:101490009A420CD9FB681B680C330021184601F0F6
:1014A000F1FABB8B0133BB833B8B01333B83FB687E
:1014B0001B68203304220221184601F025FB034655
:1014C000002B0BD1FB681B680833184601F0DCFACF
:1014D000FB8B0133FB833B8B013B3B83FA8BFB880C
:1014E0009A42CDD332E0FB68B3F844303A8B9A424B
:1014F0000CD2FB681B680C330021184601F0C2FABD
:10150000BB8B0133BB833B8B01333B83FB681B6885
:10151000203304220221184601F0F6FA0346002B7C
:1015200014D1FB681B680833184601F0ADFA014678
:101530007B8B3A681344CAB21A707B8B01337B836E
:10154000FB8B0133FB833B8B013B3B83BB8B7A697A
:101550009A42C8D832E0FB68B3F844303A8B9A42DA
:101560000CD2FB681B6828330021184601F08AFA68
:10157000BB8B0133BB833B8B01333B83FB681B6815
:10158000203304220221184601F0BEFA0346002B44
:1015900014D1FB681B680833184601F075FA014640
:1015A0007B8B3A681344CAB21A707B8B01337B83FE
:1015B000FB8B0133FB833B8B013B3B83BB8B7A690A
:1015C0009A42C8D01CE0FB681B6820330422022129
:1015D000184601F099FA0346002B11D1FB681B68ED
:1015E0000833184601F050FA01467B8B3A681344E1
:1015F000CAB21A707B8B01337B83FB8B0133FB8375
:10160000FB8B7A699A42DED200BF2037BD4680BD8F
:1016100080B582B000AF78607B68002B00D100BE3F
:101620007B68002B06D07B6818680123012200210B
:1016300001F05CFA00BF0837BD4680BD80B582B0BE
:1016400000AF78607B68186800230122002101F058
:101650004DFA7B681B681C330321184601F042FADF
:101660007B681B680433FF21184601F03BFA7B6856
:10167000186801230122002101F038FA00BF083761
:10168000BD4680BD80B588B002AFF860B9607A60B1
:1016900003233B75FB681B0CDBB27B75FB681B0AE5
:1016A000DBB2BB75FB68DBB2FB7500210C48FFF7B2
:1016B0006DFD00F027F97B689BB207F114010093E0
:1016C000BB6804220648FFF7F5FD00F01BF9002176
:1016D0000348FFF7A4FD002318461837BD4680BD18
:1016E00008A8002080B584B002AF00F081F89823EC
:1016F0003B7100237B7100210948FFF747FD391D2D
:1017000000230093002302220548FFF7D3FD0021A8
:101710000348FFF784FD002318460837BD4680BD07
:1017200008A8002090B5ADF50B7D02AF07F10C04C1
:10173000206007F10800016011463A461360BB1DA6
:101740000A461A800023A7F81E32BB1D1A88B7F874
:1017500030321344A7F81C320023A7F81E3210E0E1
:10176000B7F81E3207F1080212681A44B7F81E32A1
:10177000117807F11402D154B7F81E320133A7F8DB
:101780001E32BB1DB7F81E221B889A42E8D30023E5
:10179000A7F81E3212E0B7F81E323A4612681A4411
:1017A000BB1D1988B7F81E320B44117807F11402DB
:1017B000D154B7F81E320133A7F81E32B7F81E22F3
:1017C000B7F830329A42E6D3B7F81C2207F1140179
:1017D0000023009300230548FFF76CFD00F092F80A
:1017E00000BF07F50977BD4690BD00BF08A80020DF
:1017F00080B584B002AF00210A48FFF7C7FC06237A
:10180000FB71F91D00230093002301220548FFF717
:1018100051FD00210348FFF702FD00BF0837BD4618
:1018200080BD00BF08A8002080B58CB002AFF86072
:10183000B9607A6000237B627B683B62FB68FB6176
:101840003EE0FB69DBB2C3F580733B627A687B6A7A
:10185000D31ABB61BA693B6A9A4201D2BB693B6247
:10186000FFF7C6FF02233B75FB691B0CDBB27B75E0
:10187000FB691B0ADBB2BB75FB69DBB2FB750021A0
:101880001F48FFF783FC00F03DF8BA687B6A1A44F2
:101890003B6A9BB207F114010093134604221848D7
:1018A000FFF740FF00F02EF800211548FFF7B7FCC6
:1018B000FA693B6A1344FB617A6A3B6A13447B62B0
:1018C0007A6A7B689A42BCD300210D48FFF75EFC20
:1018D00004233B7500F016F807F114010023009370
:1018E000002301220648FFF7E5FC00F00BF8002179
:1018F0000348FFF794FC002318462837BD4680BDF7
:1019000008A8002080B584B002AF0523BB71FB1D81
:10191000B91D0122009201220748FFF7CBFCFB7999
:1019200003F00103DBB2FB71FB79012BEFD000BFA9
:1019300000BF0837BD4680BD08A8002080B586B02E
:1019400002AF7860FFF754FF00211348FFF71EFC39
:1019500020233B727B681B0CDBB27B727B681B0A0B
:10196000DBB2BB727B68DBB2FB72FFF7CBFF07F128
:10197000080100230093002304220748FFF79AFC84
:10198000FFF7C0FF00210448FFF749FC0023184679
:101990001037BD4680BD00BF08A8002080B588B0C4
:1019A00000AFF860B9607A60FB68BB617B681B0BB5
:1019B00001337B61FFF796FE0023FB610CE0B86901
:1019C000FFF7BCFF322000F099FABB6903F58053A2
:1019D000BB61FB690133FB61FA697B699A42EED313
:1019E0007A68B968F868FFF71FFF034800F0F8FA53
:1019F00000BF2037BD4680BD808B002080B588B0F9
:101A000000AFF860B9607A60FB68FB61BB68BB61DE
:101A100000237B617A68B968F868FFF733FE00BF7E
:101A20002037BD4680BD0000B0B588B004AF2F4B55
:101A3000BB602F4801F088FDBB681B7919462D4813
:101A400001F020FDBB689B6819462B4801F01AFD88
:101A5000BB681B681946294801F014FD284801F0AD
:101A600073FD284B0093284B284A2949294801F047
:101A700009FD234801F068FD0023FB6028E0FB68B6
:101A80005C2202FB03F30833BA68134404337B601F
:101A90007B681B78002B18D0FB685C1C7D687B681A
:101AA0001B6D184601F078F94FF000021A4B01F057
:101AB00017FB02460B467968496D0291CDE9002378
:101AC0002A462146154801F0DDFCFB680133FB6026
:101AD000BB681B791A46FB689342D0DB084801F0CB
:101AE00033FD00BF1037BD46B0BD00BF88A0002049
:101AF0006C8C0020848C0020A08C0020C48C0020E2
:101B0000E88C0020788D0020388D0020448D002046
:101B1000508D0020548D002000009040848D0020C6
:101B200080B586B000AF7860264B3B610023FB7523
:101B30003EE0FB7D5C2202FB03F308333A69134469
:101B40000433FB60FB681B78002B2ED1FB6879689F
:101B50003F22184601F02EFDFB68002283F83F204B
:101B60007B681A6DFB681A657B685A6DFB685A655D
:101B70003B691B790133DAB23B691A71FB685A6D14
:101B8000FB681B6D134403F6FF7323F47F6323F09C
:101B90000F03BB603B69BA689A604FF469720949E8
:101BA0000020FFF7FBFE002307E0FB7D0133FB7500
:101BB000FB7D092BBDD94FF0FF3318461837BD46C2
:101BC00080BD00BF88A0002080B5ADF5805D82B0EB
:101BD00000AF294B07F5805202F10402136007F1B0
:101BE0000803043B4FF4805219460020FFF706FF1C
:101BF00007F10803043B4FF4697219461E4801F0CF
:101C00007BFB07F5805303F104031B681B681B4A29
:101C1000934228D007F10803043B4FF4805200217F
:101C2000184601F0DFFB164801F08EFC07F58053E3
:101C300003F104031B68114A1A6007F5805303F18E
:101C400004031B6800221A7107F5805303F1040393
:101C50001B684FF480429A604FF469720649002075
:101C6000FFF79CFE02E0074801F06EFC00BF07F59D
:101C700080570837BD4680BD88A0002033AA55AAEA
:101C8000AC8D0020CC8D002080B582B000AF0F4B12
:101C90007B604FF4697200210C4801F0A3FB7B6864
:101CA0000B4A1A607B6800221A717B684FF48042ED
:101CB0009A604FF4697205490020FFF76FFE0548EE
:101CC00001F042FC00BF0837BD4680BD88A000205F
:101CD00033AA55AAF88D002080B59CB000AF144BF4
:101CE000FB664FF08063BB66FB6E9B687B661148AA
:101CF00000F076F9104800F073F93B1D1A46B96EF2
:101D0000786E00F0A7FC38663B6E002B08D03B1DB8
:101D1000184600F057F83B1D1846FFF701FF02E098
:101D2000064800F05DF93B6E18467037BD4680BD31
:101D300088A00020188E00206C8E0020AC8E002021
:101D400090B589B002AF0346FB711A4B7B61FB79FA
:101D5000013B5C2202FB03F308337A69134404332A
:101D60003B613B695B6DFB603B691B6DBB6012486F
:101D700000F036F93C693B691B6D184601F00CF820
:101D80004FF000020D4B01F0ABF902460B46104636
:101D900019463B695B6D009302460B462146084895
:101DA00001F070FBB968F86800F00EFA00BF1C374C
:101DB000BD4690BD88A00020C08E0020000090404D
:101DC000D48E002080B582B000AF786079687B68DF
:101DD0001A6D7B685B6D034801F054FB00BF083748
:101DE000BD4680BDF88E002080B483B000AF0346AE
:101DF0003960FB7197F90730002B0BDA3B68DAB2D8
:101E00000C49FB7903F00F03043B1201D2B20B44DF
:101E10001A7609E03B68DAB2074997F907301201F0
:101E2000D2B20B4483F8002300BF0C37BD4680BC00
:101E3000704700BF00ED00E000E100E080B582B037
:101E400000AF78607B68013BB3F1807F01D3012351
:101E50000FE00A4A7B68013B53600F214FF0FF30CF
:101E6000FFF7C2FF054B00229A60044B07221A605D
:101E7000002318460837BD4680BD00BF10E000E0D3
:101E800080B400AF0A4B1B680133094A1360094B49
:101E90001B680A33074A1360064B1B68092B02D8DC
:101EA000044B00221A6000BFBD4680BC704700BFD3
:101EB00054A8002050A8002080B582B000AFFEF7E3
:101EC00051FB074B1B68074AA2FB03239B097B605E
:101ED0007868FFF7B3FF00BF0837BD4680BD00BF7D
:101EE00050920020D34D621080B400AF024B1B68AB
:101EF0001846BD4680BC704754A8002080B584B009
:101F000000AF7860FFF7F0FFF860FA687B68134471
:101F1000BB60FA68BB689A420DD200BFFFF7E4FFCE
:101F20000246FB68934213D8FFF7DEFF0246BB6808
:101F30009342F3D80CE000BFFFF7D6FF0246FB68E0
:101F40009342F9D9FFF7D0FF0246BB689342F3D81A
:101F500000BF1037BD4680BD80B582B000AF002302
:101F6000FB71BB1D012219460648FEF787FF034699
:101F7000FB71FB79002BF4D0BB7918460837BD46BE
:101F800080BD00BF00A8002080B582B000AF03462E
:101F9000FB71FB1D012219460348FEF730FF00BF0D
:101FA0000837BD4680BD00BF00A8002080B582B0C4
:101FB00000AF00237B600023FB70BB1C012219468D
:101FC0000648FEF75BFF0346FB70FB78002BF4D05E
:101FD000BB785BB218460837BD4680BD00A800201C
:101FE00080B584B000AF78600023FB730BE097F9F5
:101FF0000F300A2B02D10D20FFF7C6FF97F90F30E3
:102000001846FFF7C1FF7B685A1C7A601B78FB7388
:1020100097F90F30002BEAD100BF00BF1037BD4643
:1020200080BD000080B584B000AF78601148FFF734
:10203000D7FF0023FB6014E0FB68C3F107039B009C
:102040007A6822FA03F303F00F03BB600A4ABB6805
:10205000134493F900301846FFF796FFFB680133ED
:10206000FB60FB68072BE7DD00BF00BF1037BD46F4
:1020700080BD00BF108F00201C8F002080B584B071
:1020800000AF78600623FB6014E0FB68C3F1070330
:102090009B007A6822FA03F303F00F03BB60094A3E
:1020A000BB68134493F900301846FFF76DFFFB68D7
:1020B0000133FB60FB68072BE7DD00BF00BF103773
:1020C000BD4680BD2C8F002080B582B000AF0C488B
:1020D000FFF786FF0023FB7109E0FB791846FFF745
:1020E000CDFF0848FFF77CFFFB790133FB71FB79DB
:1020F0000F2BF2D900BF00BF0837BD4680BD00BF1F
:102100003C8F00204C8F002080B584B000AF7860F9
:1021100039600023FB601148FFF762FF7868FFF722
:1021200081FF0F48FFF75CFF0023FB600CE03A687B
:10213000FB6813441B781846FFF7A0FF0948FFF718
:102140004FFFFB680133FB60FB680F2BEFD903489F
:10215000FFF746FF00BF1037BD4680BD508F0020FF
:10216000548F00204C8F002080B584B000AF786081
:1021700039600023FB601148FFF732FF7868FFF7F2
:1021800051FF0F48FFF72CFF0023FB600DE03A687A
:10219000FB6813441B785BB21846FFF7F5FE09484D
:1021A000FFF71EFFFB680133FB60FB680F2BEED9C6
:1021B00000BF00BF1037BD4680BD00BF508F00205C
:1021C000548F00204C8F002080B5C6B000AF3B1D5F
:1021D00018603B4619600023C7F81431FFF774FFFD
:1021E0000023C7F814314EE03B1D1A68D7F81431AC
:1021F000134407F10C014FF480721846FFF742FABE
:102200000023C7F8103127E02548FFF7E9FE3B1D02
:102210001A68D7F814311A44D7F81031D01807F1DA
:102220000C02D7F8103113441946FFF76DFF3B1D20
:102230001A68D7F814311A44D7F81031D01807F1BA
:102240000C02D7F8103113441946FFF78DFFD7F869
:1022500010311033C7F81031D7F81031FF2BD3D914
:10226000D7F8143103F58073C7F814310D48FFF720
:10227000B7FEFFF79BFE034687F80F3197F80F3143
:10228000782B07D000BF3B46D7F814211B689A4231
:10229000AAD300E000BF00BF07F58C77BD4680BD24
:1022A000588F0020608F002080B485B000AF786028
:1022B00039600023FB8124E07B685A1C7A601B781C
:1022C0001B021AB2B7F90E3053401BB2FB81002338
:1022D000BB6013E0B7F90E30002B09DAFB895B0015
:1022E0001BB283F4815383F001031BB2FB8102E034
:1022F000FB895B00FB81BB680133BB60BB68072BBC
:10230000E8DD3B685A1E3A60002BD5D1FB891846A0
:102310001437BD4680BC704780B485B000AF78608C
:102320000B4B1B68FB607B684FF47A7202FB03F374
:102330007B6000BF064B1A68FB68D31A7A689A4222
:10234000F8D800BF00BF1437BD4680BC704700BF3F
:1023500050A8002080B588B000AF78604FF0FF3300
:10236000BB610023FB617B68002B14DA0FE007F1EF
:102370000F03012219462648FEF780FD03467B61C4
:102380007B69002B03D00123FB61FB7BBB61FB69F5
:10239000002BECD037E07B68002B26DD1D4B1B6843
:1023A0003B617B6841F2883202FB03F37B6018E0FB
:1023B00007F10F03012219461548FEF75FFD03469A
:1023C0007B617B69002B03D00123FB61FB7BBB613D
:1023D0007A683B691A440F4B1B689A4201D8012363
:1023E000FB61FB69002BE3D00DE007F10F03012235
:1023F00019460748FEF742FD03467B617B69002BC7
:1024000001D0FB7BBB61BB6918462037BD4680BD50
:1024100000A8002050A8002080B584B000AF7860EC
:102420007B68DBB2FB7307F10F03012219460348F7
:10243000FEF7E5FC00BF1037BD4680BD00A80020B8
:1024400080B487B000AF78607B687B617B695A1C81
:102450007A611B78FB73FB7B202BF7D000233B6159
:1024600011E0FB7B303BFB733A6913469B0013443E
:102470005B003B61FB7B3A6913443B617B695A1CFF
:102480007A611B78FB73FB7B2F2B02D9FB7B392BEB
:10249000E7D93B6918461C37BD4680BC7047000031
:1024A00080B588B000AF786039600023BB6000233E
:1024B000BB613B6800221A600120FFF74BFFF86107
:1024C000FB69002B03DA4FF0FF33BB60B6E0FB691A
:1024D000013B172B54D801A252F823F03D250020D0
:1024E00043250020812500204B2500208125002048
:1024F00081250020812500208125002081250020C4
:1025000081250020812500208125002081250020B3
:1025100081250020812500208125002081250020A3
:102520008125002081250020812500208125002093
:102530008125002081250020532500208023BB61B8
:1025400026E04FF48063BB6122E06FF00103BB60C3
:102550001EE00120FFF7FEFEF861FB69182B07D192
:102560003B684FF0FF321A606FF00203BB600FE070
:102570003B684FF0FF321A606FF00303BB6007E067
:102580003B684FF0FF321A606FF00303BB6000BF7F
:10259000BB68002B52D1FB69DAB27B681A70012349
:1025A000FB6014E00120FFF7D5FEF861FB69002B0A
:1025B00003DA4FF0FF33BB6006E0FB681A467B6826
:1025C0001344FA69D2B21A70FB680133FB60BB692D
:1025D00005331A46FB689A4202DDBB68002BE1D046
:1025E000BB68002B0CBF01230023DBB27B617B683F
:1025F0005B78FB747B6802331B78DB43BB747B69BD
:10260000002B05D0FA7CBB7C9A4201D00123BB6031
:10261000BB68002B0CD17B68DA1CBB6902331946FE
:102620001046FFF741FE0346002B01D00123BB609B
:10263000BB68002B02D1BA693B681A60BB68B3F172
:10264000FF3F01DA0023BB60BB6818462037BD4658
:1026500080BD00BF80B5ADF58A6D00AF07F10C03FA
:10266000186007F1080319603B1D1A6007F1140395
:10267000C7F820340123C7F830340023C7F82C34BE
:102680000023C7F828343B1D1B6800221A70002362
:10269000C7F840340023C7F83434C8E10123C7F831
:1026A0001C340123C7F83C34D7F83034002B02D156
:1026B0004320FFF7B1FE0023C7F830340023C7F8EA
:1026C00038340023C7F84434D7F82034C7F8183416
:1026D000A8E107F110031946BE48FFF7E1FEC7F86D
:1026E0001404D7F81434002B40F078810023C7F885
:1026F000343407F110031B68B3F1FF3F02D0002B05
:102700000AD013E00620FFF787FE0123C7F8443400
:102710000123C7F840345BE10620FFF77DFE01236B
:10272000C7F844340123C7F8283451E1A94B5B783A
:102730001A46D7F83834DBB29A420FD0D7F838347B
:10274000012B07D1A34B5B78002B03D14320FFF76C
:1027500063FE3CE11520FFF75FFE38E1D7F838341F
:10276000002B40F0CC800023C7F824340323C7F8A3
:1027700048340FE0974AD7F8483413441B781A4678
:10278000D7F824341344C7F82434D7F84834013335
:10279000C7F84834D7F84834062BEBDDD7F8243493
:1027A000002B00F0A2808C4BC7F84C340023C7F8F4
:1027B00048340DE0D7F84C24531CC7F84C34D7F8F4
:1027C0004834591CC7F8481411783A1D1268D1547E
:1027D000D7F84C341B78002B03D0D7F848343F2B64
:1027E000E8DDD7F848345A1CC7F848243A1D126867
:1027F0001344002283F8402004E0D7F84C3401331E
:10280000C7F84C34D7F84C341B78002BF5D1D7F8E7
:102810004C340133C7F84C340023C7F8483410E077
:10282000D7F84C24531CC7F84C34D7F84834591CFB
:10283000C7F8481411783A1D126813440A4683F801
:102840004020D7F84C341B78002B08D0D7F84C34F4
:102850001B78202B03D0D7F848340F2BE0DDD7F8B6
:1028600048345A1CC7F848243A1D12681344002201
:1028700083F840203B1D1B6840331846FFF7E0FDFE
:10288000C7F82C043B1D1B68D7F82C241A653B1D88
:102890001B6807F10C0212685A6507F10803D7F8A4
:1028A0002C241B689A420FD91820FFF7B5FD182079
:1028B000FFF7B2FD0120FFF72FFD0123C7F84434D5
:1028C0000123C7F840347DE00620FFF7A5FDD7F8C7
:1028D0003C34002B01D0432300E015231846FFF7BA
:1028E0009BFD0023C7F83C346CE00620FFF794FD05
:1028F0000123C7F844340123C7F8403468E007F1E6
:1029000010031B681A46D7F818341A44D7F8203435
:10291000D31A1A4607F108031B6893420FD21820F6
:10292000FFF77AFD1820FFF777FD0120FFF7F4FC91
:102930000123C7F844340123C7F8403442E00023A0
:10294000C7F848340FE0D7F84834DA1CD7F84834D1
:10295000D7F818140B441F498A5C1A70D7F848340A
:102960000133C7F8483407F110031B68D7F848242F
:102970009A42E8DB07F10C031B68C3F30B03002B3F
:1029800004D107F10C031868FEF7D8FF3220FFF7D7
:10299000B5FA07F110031B681A4607F10C03D7F8C4
:1029A00018141868FEF740FF07F110031B6819465A
:1029B00007F10C0307F10C0212680A441A600620A2
:1029C000FFF72AFDD7F838340133C7F8383400BF91
:1029D00028E000BF4C9C00204F9C0020D7F83834E2
:1029E000002B17D0D7F834340133C7F83434D7F874
:1029F0003434042B0ED91820FFF70EFD1820FFF7F2
:102A00000BFD0120FFF788FC0123C7F844340123A4
:102A1000C7F84034D7F84034002B02D14320FFF7E9
:102A2000FBFC00BFD7F84434002B3FF452AED7F87C
:102A30004034002B3FF432AED7F82834012B02D1BA
:102A4000D7F82C3400E00023184607F58A67BD4606
:102A500080BD00BF0000000000000000000000007A
:102A60004FF020400168054A1060D0F804E081F37F
:102A7000088803494FF001000860704708ED00E046
:102A80000880034001607047006870470EB503FA84
:102A900001F303EA020301686FEA020201EA02019C
:102AA00041EA030101600EBD006800EA020020FA5D
:102AB00001F0704701807047008870470EB503FA37
:102AC00001F303EA020301886FEA020201EA02014C
:102AD00041EA030101800EBD008800EA020020FAED
:102AE00001F0704701707047007870470EB503FA27
:102AF00001F303EA020301786FEA020201EA02012C
:102B000041EA030101700EBD007800EA020020FADC
:102B100001F0704781F0004102E000BF83F0004304
:102B200030B54FEA41044FEA430594EA050F08BF68
:102B300090EA020F1FBF54EA000C55EA020C7FEA2C
:102B4000645C7FEA655C00F0E2804FEA5454D4EBA9
:102B50005555B8BF6D420CDD2C4480EA020281EA73
:102B6000030382EA000083EA010180EA020281EAAB
:102B70000303362D88BF30BD11F0004F4FEA0131FD
:102B80004FF4801C4CEA113102D0404261EB41010C
:102B900013F0004F4FEA03334CEA133302D0524292
:102BA00063EB430394EA050F00F0A780A4F101044E
:102BB000D5F1200E0DDB02FA0EFC22FA05F2801888
:102BC00041F1000103FA0EF2801843FA05F359416E
:102BD0000EE0A5F120050EF1200E012A03FA0EFCED
:102BE00028BF4CF0020C43FA05F3C01851EBE37117
:102BF00001F0004507D54FF0000EDCF1000C7EEB34
:102C000000006EEB0101B1F5801F1BD3B1F5001F71
:102C10000CD349085FEA30004FEA3C0C04F1010490
:102C20004FEA445212F5800F80F09A80BCF1004FB9
:102C300008BF5FEA500C50F1000041EB045141EA3B
:102C4000050130BD5FEA4C0C404141EB0101013C04
:102C500028BFB1F5801FE9D291F0000F04BF0146F3
:102C60000020B1FA81F308BF2033A3F10B03B3F1C5
:102C700020020CDA0C3208DD02F1140CC2F10C0255
:102C800001FA0CF021FA02F10CE002F11402D8BFB3
:102C9000C2F1200C01FA02F120FA0CFCDCBF41EA7F
:102CA0000C019040E41AA2BF01EB0451294330BD4E
:102CB0006FEA04041F3C1CDA0C340EDC04F114042B
:102CC000C4F1200220FA04F001FA02F340EA030002
:102CD00021FA04F345EA030130BDC4F10C04C4F148
:102CE000200220FA02F001FA04F340EA0300294628
:102CF00030BD21FA04F0294630BD94F0000F83F472
:102D0000801306BF81F480110134013D4EE77FEA54
:102D1000645C18BF7FEA655C29D094EA050F08BFA0
:102D200090EA020F05D054EA000C04BF1946104681
:102D300030BD91EA030F1EBF0021002030BD5FEAC5
:102D4000545C05D14000494128BF41F0004130BDED
:102D500014F580043CBF01F5801130BD01F0004541
:102D600045F0FE4141F470014FF0000030BD7FEAB4
:102D7000645C1ABF194610467FEA655C1CBF0B46AF
:102D8000024650EA013406BF52EA033591EA030FC6
:102D900041F4002130BD00BF90F0000F04BF0021BE
:102DA000704730B54FF4806404F132044FF00005F1
:102DB0004FF0000150E700BF90F0000F04BF00216A
:102DC000704730B54FF4806404F1320410F00045D0
:102DD00048BF40424FF000013EE700BF42004FEACB
:102DE000E2014FEA31014FEA02701FBF12F07F4348
:102DF00093F07F4F81F06051704732F07F4208BFFF
:102E0000704793F07F4F04BF41F40021704730B505
:102E10004FF4607401F0004521F000411CE700BF51
:102E200050EA010208BF704730B54FF000050AE0D4
:102E300050EA010208BF704730B511F0004502D5D5
:102E4000404261EB41014FF4806404F132045FEAD7
:102E5000915C3FF4D8AE4FF003025FEADC0C18BF80
:102E600003325FEADC0C18BF033202EBDC02C2F172
:102E7000200300FA03FC20FA02F001FA03FE40EA04
:102E80000E0021FA02F11444BDE600BF70B54FF008
:102E9000FF0C4CF4E06C1CEA11541DBF1CEA1355E6
:102EA00094EA0C0F95EA0C0F00F0DEF82C4481EA4E
:102EB000030621EA4C5123EA4C5350EA013518BF6E
:102EC00052EA033541F4801143F4801338D0A0FB5B
:102ED00002CE4FF00005E1FB02E506F00042E0FB08
:102EE00003E54FF00006E1FB03569CF0000F18BF0E
:102EF0004EF0010EA4F1FF04B6F5007F64F54074B6
:102F000004D25FEA4E0E6D4146EB060642EAC62148
:102F100041EA55514FEAC52040EA5E504FEACE2EB5
:102F2000B4F1FD0C88BFBCF5E06F1ED8BEF1004FB8
:102F300008BF5FEA500E50F1000041EB045170BD34
:102F400006F0004646EA010140EA020081EA030178
:102F5000B4EB5C04C2BFD4EB0C0541EA045170BD74
:102F600041F480114FF0000E013C00F3AB8014F1EE
:102F7000360FDEBF002001F0004170BDC4F1000437
:102F8000203C35DA0C341BDC04F11404C4F12005B8
:102F900000FA05F320FA04F001FA05F240EA020013
:102FA00001F0004221F0004110EBD37021FA04F649
:102FB00042EB06015EEA430E08BF20EAD37070BD03
:102FC000C4F10C04C4F1200500FA04F320FA05F062
:102FD00001FA04F240EA020001F0004110EBD37064
:102FE00041F100015EEA430E08BF20EAD37070BDD4
:102FF000C4F1200500FA05F24EEA020E20FA04F3AD
:1030000001FA05F243EA020321FA04F001F000415B
:1030100021FA04F220EA020000EBD3705EEA430ECC
:1030200008BF20EAD37070BD94F0000F0FD101F0FB
:103030000046400041EB010111F4801F08BF013C34
:10304000F7D041EA060195F0000F18BF704703F072
:103050000046520043EB030313F4801F08BF013DF9
:10306000F7D043EA0603704794EA0C0F0CEA1355B5
:1030700018BF95EA0C0F0CD050EA410618BF52EA6F
:103080004306D1D181EA030101F000414FF0000075
:1030900070BD50EA410606BF1046194652EA430683
:1030A00019D094EA0C0F02D150EA013613D195EAF7
:1030B0000C0F05D152EA03361CBF104619460AD13F
:1030C00081EA030101F0004141F0FE4141F4700149
:1030D0004FF0000070BD41F0FE4141F4780170BD39
:1030E00070B54FF0FF0C4CF4E06C1CEA11541DBF9E
:1030F0001CEA135594EA0C0F95EA0C0F00F0A7F8A0
:10310000A4EB050481EA030E52EA03354FEA0131CC
:1031100000F088804FEA03334FF0805545EA1313DF
:1031200043EA12634FEA022245EA111545EA1065A7
:103130004FEA00260EF000419D4208BF964244F13E
:10314000FD0404F5407402D25B084FEA3202B61A5D
:1031500065EB03055B084FEA32024FF480104FF431
:10316000002CB6EB020E75EB030E22BFB61A7546A5
:1031700040EA0C005B084FEA3202B6EB020E75EB38
:10318000030E22BFB61A754640EA5C005B084FEAA0
:103190003202B6EB020E75EB030E22BFB61A75466D
:1031A00040EA9C005B084FEA3202B6EB020E75EB78
:1031B000030E22BFB61A754640EADC0055EA060E39
:1031C00018D04FEA051545EA16754FEA06164FEA7C
:1031D000C30343EA52734FEAC2025FEA1C1CC0D128
:1031E00011F4801F0BD141EA00014FF000004FF0B5
:1031F000004CB6E711F4801F04BF01430020B4F176
:10320000FD0C88BFBCF5E06F3FF6AFAEB5EB030C2D
:1032100004BFB6EB020C5FEA500C50F1000041EB2A
:10322000045170BD0EF0004E4EEA113114EB5C04F7
:10323000C2BFD4EB0C0541EA045170BD41F48011CA
:103240004FF0000E013C90E645EA060E8DE60CEAD2
:10325000135594EA0C0F08BF95EA0C0F3FF43BAFEF
:1032600094EA0C0F0AD150EA01347FF434AF95EAA6
:103270000C0F7FF425AF104619462CE795EA0C0F8A
:1032800006D152EA03353FF4FDAE1046194622E757
:1032900050EA410618BF52EA43067FF4C5AE50EA31
:1032A00041047FF40DAF52EA43057FF4EBAE12E721
:1032B00070B50D4E0D4D761BB61006D0002455F896
:1032C000043B01349847A642F9D1094E094D05F057
:1032D000A3FF761BB61006D0002455F8043B01343A
:1032E0009847A642F9D170BD30920020309200205C
:1032F0003892002030920020844641EA000313F007
:10330000030349D1403A23D30B6803604B68436001
:103310008B688360CB68C3600B6903614B69436151
:103320008B698361CB69C3610B6A03624B6A436239
:103330008B6A8362CB6AC3620B6B03634B6B436321
:103340008B6B8363CB6BC36340304031403ADBD23D
:1033500030320BD30B6803604B6843608B6883602B
:10336000CB68C36010301031103AF3D20C3205D361
:1033700051F8043B40F8043B043AF9D2043208D037
:10338000D2071CBF11F8013B00F8013B01D30B88A9
:1033900003806046704700BF082A13D38B07B1D063
:1033A00010F00303AED0C3F10403D21ADB071CBF35
:1033B00011F8013B00F8013BA4D331F8023B20F89F
:1033C000023B9FE7043AD9D3013A11F8013B00F8D8
:1033D000013BF9D20B7803704B7843708B78837084
:1033E00060467047F0B4860746D0541E002A3CD091
:1033F0000346CAB201E0013C37D303F8012B9D0715
:10340000F9D1032C2AD9CDB245EA05250F2C45EA7E
:10341000054534D9A4F1100222F00F0C03F1200766
:103420001609674403F1100242E9045542E90255C6
:103430001032BA42F8D1721C14F00C0F03EB0212D6
:1034400004F00F0613D0331F23F003030433134497
:1034500042F8045B9342FBD106F003042CB1CAB2DC
:103460001C4403F8012B9C42FBD1F0BC704734464E
:103470001346002CF3D1F8E714460346C1E71A4679
:103480002646E0E70FB400B5074983B004AB0868EF
:1034900053F8042B8168019300F0C0F803B05DF885
:1034A00004EB04B0704700BF74920020F0B50546ED
:1034B00089B008460C46012700F04EF80226214943
:1034C000AA6B059004AB384404940390AC6807974A
:1034D00002960691019322B3636E13F0010FB4F9C3
:1034E0000C309AB201D1980525D5910406D4626EAC
:1034F00043F4005322F40052A3816266284601AAD5
:10350000214603F0C5F9636E002814BF4FF0FF3564
:103510000A25DA0702D4A3899B0506D5284609B0F7
:10352000F0BD284603F00EF8D6E7A06D03F054FB7B
:10353000284609B0F0BDA06D03F04CFBB4F90C3087
:103540009AB2D2E7908F0020024B01461868FFF72D
:10355000ADBF00BF7492002020F0030110F0030003
:10356000C0F1000051F8043B00F1040C4FEACC0C10
:103570006FF000021CBF22FA0CF213434FF0010C53
:103580004CEA0C2C4CEA0C4CA3EB0C0222EA030292
:1035900012EACC1204BF51F8043B0430F4D0C2F15B
:1035A000000102EA0102B2FA82F2C2F11F0200EB4C
:1035B000D200704770B440EA0104A30722D1032A65
:1035C00020D90B460446194653F8046BA6F1013581
:1035D00025EA060515F0803F15D1043A032A19465D
:1035E00044F8046BEFD84D1E52B1234615F8011F65
:1035F000561E03F8011B41B132461C46002AF4D185
:1036000070BC704704464D1EEEE72244002EF7D0F2
:1036100003F8011B9342FBD170BC70472DE9F04FBA
:10362000D7B01C468B461746814603F0CBFA036899
:103630000E9418461893FFF78FFF1790B9F1000FFB
:1036400004D0D9F83830002B00F0EA81DBF8643080
:1036500013F0010FBBF90C309AB202D19D0540F175
:10366000B58690040AD4DBF8642043F4005322F4B6
:103670000051ABF80C309AB2CBF86410110740F14E
:10368000BB80DBF81030002B00F0B68002F01A038C
:103690000A2B00F0BF80002300210022CDE92B334C
:1036A000CDE91A33CDE91C33139319930A932DAB4B
:1036B00098462A933B78DA46CDE91412002B00F0A5
:1036C00060813C4604E014F8013F002B00F0B98013
:1036D000252BF8D1E51B40F0B7802378002B00F0B4
:1036E000508100230B938DF88B3007934FF0FF33FD
:1036F000667804F1010B20212B2409930BF1010BB7
:10370000A6F120035A2B00F2BB80DFE813F0EA0297
:10371000B900B900E302B900B900B900BF02B900AD
:10372000B9006A005202B90033025E02B9005702C2
:103730005B005B005B005B005B005B005B005B00B1
:103740005B00B900B900B900B900B900B900B9000F
:103750004201B900C1019401420142014201B90094
:10376000B900B900B900AF02B900B900FB01B90056
:10377000B900B900D501B9007802B900B900B7079E
:10378000B900B900B900B900B900B900B900B90071
:103790004201B900C1019801420142014201A50262
:1037A00098018D01B9009B02B9003A02FF0189021C
:1037B0008D01B900D50172009207B900B9009607D2
:1037C000B90072000022A6F130031BF8016B02EB76
:1037D000820203EB4202A6F13003092BF5D90B92CA
:1037E0008EE70E9B53F8042B002A0B920E93C0F227
:1037F000BE819BF8006081E75946484601F05EFDB6
:10380000002841F09B83BBF80C2002F01A030A2B1E
:103810007FF441AFBBF90E30002BFFF63CAFDBF875
:103820006430DE0702D4950541F1808123463A4693
:103830005946484601F0FEFC0A900A9857B0BDE888
:10384000F08FE51B00F09D80DDE92B3201332A4427
:10385000072BC8E90075CDE92B3206DC08F1080812
:103860000A9A23782A440A9238E7514648462AAAF7
:1038700004F07CFB002841F00E840DF1B408EFE762
:10388000002E7ED0002301211A4608918DF8F460A5
:103890008DF88B300D9309931293169310930C911E
:1038A0003DAF079B13F0020302D008990231089143
:1038B000079911F084010F9105D10B9908980D1A01
:1038C000002D00F39C832C9C72B101202B9A0444A0
:1038D00002440DF18B01072ACDE92B24C8E9001021
:1038E00000F30B8408F108086BB102212B9B0C44F8
:1038F000013323AA072BCDE92B34C8E9002100F3BB
:103900000B8408F108080F9B802B00F07882099B3C
:103910000C9A9D1A002D00F3B282079BDD0500F181
:1039200019822B9B0C9A01331444072BC8E90072AF
:103930002C942B9300F3D58308F10808079B5D07AF
:1039400005D50B9B089A9D1A002D00F3F283DDE943
:103950000A3208998A42ACBF9B185B180A93002C64
:1039600040F0C18200232B930D9B1BB148460D995B
:1039700002F088FE5F460DF1B4083B78002B7FF41F
:10398000A0AE2C9BD346002B40F0FB8700232B934B
:10399000B7E20E9B073323F007031946F1E8022331
:1039A000CDE91423DDE9143424F000441D46184603
:1039B0000E914FF0FF322146B04B04F0CFFD0028AE
:1039C00040F06F85284621464FF0FF32AB4B04F0A4
:1039D000A7FD002840F06585DDE9140100220023E1
:1039E00004F094FD002841F0E9809DF88B2003202D
:1039F0000021A34FA34B08900D91472EC8BF1F462F
:103A0000079C0C9024F08004079409911291169160
:103A10001091002A3FF445AF089B0133089340E71B
:103A2000484602F08FFD11E6079B9BF8006043F0CB
:103A30002003079362E6079B43F010030793079B5D
:103A40009C0640F18E840E9B073323F00703194632
:103A5000F1E8022314461D460E91002A73F100037B
:103A6000C0F2F884099B0133079B00F0098323F01F
:103A7000800354EA0502089340F00383099A002A60
:103A800040F004830793002356AF09930C9353E14E
:103A9000002101240E9B0A4653F8040B0894CDE93B
:103AA0000D138DF88B108DF8F40009911291169179
:103AB00010910C943DAFF4E600250E9C8DF88B50D0
:103AC00054F8047B002F00F02386099A1346013333
:103AD00000F016872946384603F0A6FB0D90002813
:103AE00001F0A6812B460D9A0995D21B0C9222EA71
:103AF000E27208920E949DF88B200D931293169308
:103B0000109386E7079B43F010030793079B9A06E1
:103B100040F148840E9B073323F00703F3E8024586
:103B20000E93079B23F480630893002300228DF8F3
:103B30008B20099A1146013100F0DF80089921F0AD
:103B40008001079154EA050140F0D580002A40F039
:103B50003882002B97D1089B13F001030C9300F0DF
:103B6000658430230DF257178DF85731E4E00B9B35
:103B70005B420B93079B9BF8006043F004030793A1
:103B8000BCE5079B9D0600F17084079BDC0600F1F5
:103B90007B86079B580600F10687079B990540F135
:103BA00073860E9B0A9953F8042B5F4611700E938F
:103BB000E3E69BF800608DF88B409FE5079B9BF840
:103BC000006043F08003079398E55A4612F8016BB2
:103BD0002A2E01F00783A6F13003092B934698BFE4
:103BE000002201F26F811BF8016B02EB820203EBF2
:103BF0004202A6F13003092BF5D9099280E5079B13
:103C000043F010030893089B9D0640F1BB830E9B75
:103C1000073323F00703F3E802450E93012385E7FA
:103C200047F630020E9B079953F8044B41F002010E
:103C30000E93154B00251993782602230891ADF8B1
:103C40008C2073E79BF80060079B6C2E00F0418589
:103C500043F01003079351E59BF80060079B682E23
:103C600000F04D8543F04003079347E5079B9BF821
:103C7000006043F00803079340E500BFFFFFEF7FBC
:103C8000948F0020988F0020A48F0020484602F0D7
:103C900099FF436818461C93FFF75EFC03464846AD
:103CA0001D461D9302F08EFF826820211A92002D7E
:103CB0003FF49FAD1A9B002B3FF49BAD1A9B1B78E2
:103CC000002B3FF496AD079B9BF8006043F48063A4
:103CD000079313E5079B9BF8006043F001030793EC
:103CE0000CE59DF88B30002B7FF483AD9BF80060D2
:103CF0008DF88B1002E5079A0892012B00F0C18124
:103D0000022B00F0668156AFE20842EA4572E908EC
:103D100004F007030D461446303354EA05013A46D1
:103D200007F8013DF0D108990846C00700F1D38299
:103D300056ABDB1B07910C93002309990D9312934B
:103D4000169310930C9B9DF88B208B42B8BF0B46AB
:103D500008935EE6652E40F3E580DDE9140100225C
:103D6000002304F0C9FB002800F01B8201212B9BDB
:103D7000CB4A0B440C44072BCDE92B34C8E9002176
:103D800000F3678508F10808249B139A934280F298
:103D900018832B9B179A013318991444072BC8E9F1
:103DA00000122C942B9300F39D8408F10808139BB8
:103DB0005D1E002D7FF7C2AD102D40F35785B94F22
:103DC00010262B9B0F9705E008F10808103D102DD9
:103DD00040F34F8501331034072BCDE92B34C8E96C
:103DE0000076F1DD514648462AAA04F0BFF80028C3
:103DF00040F08180DDE92B340DF1B408E6E70B9B40
:103E0000089A9D1A002D7FF782AD102D41F3A780EF
:103E1000A4482146102304462B9A0F9004E0103D3D
:103E2000102D08F1080817DD01321031072ACDE9FD
:103E30002B21C8E90043F2DD514648462AAA04F086
:103E400095F8002857D1DDE92B21103D102D4FF0BA
:103E500010030DF1B408E7DC0C4601320F9B2C4433
:103E6000072ACDE92B24C8E9003500F30A84099B11
:103E70000C9A08F108089D1A002D7FF74EAD102D01
:103E800040F37A8587482146102304462B9A0F90E9
:103E900004E0103D102D08F1080816DD0132103144
:103EA000072ACDE92B21C8E90043F2DD51464846F7
:103EB0002AAA04F05BF8F0B9DDE92B21103D102DA2
:103EC0004FF010030DF1B408E8DC0C4601320F9BF3
:103ED0002C44072ACDE92B24C8E9003500F33482AD
:103EE00008F1080819E5514648462AAA04F03EF8A8
:103EF00000283FF437ADD3460D9911B1484602F082
:103F0000C1FBDBF8643013F0010FBBF80C3002D1B9
:103F1000980540F17784590601F11C800A9857B042
:103F2000BDE8F08F139B012B40F3B78101232B9D3C
:103F30001C441D44072D2C94C8F800702B95C8F81C
:103F4000043000F3FF8308F10808179B0135189A25
:103F50001C44072DCDE92B54C8E9002300F300844D
:103F600008F108080023DDE91401002204F0C4FA76
:103F7000139B002840F0BD81013B013501371C44F3
:103F8000072DCDE92B54C8F80070C8F8043000F3B1
:103F9000938308F108081B9A0135144426AB072DBA
:103FA000CDE92B54C8E900327FF7C6AC51464846EC
:103FB0002AAA03F0DBFF00289DD12C9C0DF1B40848
:103FC000BCE4012B00F0D087022B079B08937FF401
:103FD0009AAE199856AF230943EA0573290904F0EC
:103FE0000F020D461C46835C07F8013D54EA0503A9
:103FF000F1D1089B079356ABDB1B0C939CE6102D6D
:1040000040F33887DDE92B211E930B4639461024F7
:1040100037465646CA46894604E0103D102D08F141
:10402000080817DD013220491033072ACDE92B2378
:10403000C8E90014F1DD314650462AAA03F096FF84
:10404000002840F0F883DDE92B23103D102D0DF101
:10405000B408E7DC4846D146B2463E460746194614
:104060001E9B6C1801321049072ACDE92B24C8E9A0
:10407000001500F3CF839DF88B2008F1080823E496
:104080000893002D08BF0A2C80F07883089B3034F9
:10409000079301238DF857410C930DF257174BE608
:1040A000D48F0020E88F0020D88F00202B9B1799F9
:1040B000013318980C44072BC8E900012C942B936A
:1040C00000F3258508F10808002AC0F2FF86139A3C
:1040D00001331444072BCDE92B34C8E900727FF774
:1040E0002BAC514648462AAA03F040FF00287FF433
:1040F00002AF2C9C0DF1B40820E4514648462AAA90
:104100001E9303F033FF00287FF4F5AE2C9C1E9B1A
:104110000DF1B408FFF7E8BB514648462AAA03F060
:1041200025FF00287FF4E7AE2C9C0DF1B408FFF7C3
:10413000EABB102D40F3FF8610262B9B04E0103DB8
:10414000102D08F1080817DD0133B94A1034072B88
:10415000CDE92B34C8E90026F1DD514648462AAAAC
:1041600003F004FF00287FF4C6AEDDE92B34103DD8
:10417000102D0DF1B408E7DC0133AD4A2C44072BB8
:10418000CDE92B34C8E900257FF7E1AB514648461D
:104190002AAA03F0EBFE00287FF4ADAE2C9CFFF7BB
:1041A000D6BB249A002A40F31A81109B139A93429B
:1041B000A8BF1346002B1D460BDD2B9B2C4401335F
:1041C000072BC8E900752C942B9300F3DB8508F1CD
:1041D0000808109B002DA8BF5B1B002B1D4600F399
:1041E0006783109B3B441E46079B590500F10185E0
:1041F000249B139A934203DB079AD20740F1CB83A7
:104200002B9A1799013218980C44072AC8E9000123
:104210002C942B9200F3C38508F10808139ABD185B
:10422000AD1BD31A9D42A8BF1D46002D0BDD2B9A56
:104230002C440132072AC8E900652C942B9200F324
:104240001D8608F10808002DB4BF1D465D1B002D1A
:104250007FF774AB102D40F30983764F10262B9B0C
:104260000F9705E008F10808103D102D40F3018379
:1042700001331034072BCDE92B34C8E90076F1DD8A
:10428000514648462AAA03F071FE00287FF433AE57
:10429000DDE92B340DF1B408E6E7079BDE073FF5B7
:1042A00045AE01232B9D1C441D44072D2C94C8F8BA
:1042B00000702B95C8F804307FF76BAE5146484626
:1042C0002AAA03F053FE00287FF415AEDDE92B5433
:1042D0000DF1B4085FE6302B3FF48BAE3023023A89
:1042E00007F8013C089956AB9B1A174607910C93A7
:1042F00022E55E1E002E7FF74EAE102E40F34F8754
:104300004C4BCDF824B01027D3460F93CA4699469C
:1043100005E008F10808103E102E40F3BF8101357A
:104320001034072DCDE92B54C8E90097F1DD59462B
:1043300050462AAA03F01AFE002840F0EC85DDE979
:104340002B540DF1B408E6E7514648462AAA03F07B
:104350000DFE00287FF4CFAD2C9C0DF1B408FFF7C3
:10436000DCBA079BD80669D4079B590640F1F68250
:104370000E9B53F8044B24B2E5170E9322462B46AE
:10438000FFF76BBB089BDC067CD4089B580640F10A
:10439000CA820E9A012352F8044B00250E92A4B251
:1043A000FFF7C4BB079BDB0674D4079B5F0640F195
:1043B000C9820E9B002553F8044B0E93A4B2FFF75D
:1043C000B0BB079BD8077FF5B9AAE2E4DBF8580039
:1043D00002F000FCBBF90C309AB2FFF742B90120A1
:1043E0002B9B154903440444072BCDE92B34C8E922
:1043F000001000F3AC8408F10808002A7FF456AEE0
:10440000079B139A03F0010313433FF497AA2B9BD6
:10441000179A013318991444072BC8E900122C94F9
:104420002B9300F3748308F1080850E656AF83E439
:10443000D88F0020E88F0020D48F00200E9B53F8E7
:10444000044B2246E5170E932B46002A73F1000316
:10445000BFF608AB2D23079A64428DF88B3065EBCD
:10446000450501230892FFF764BB0E9B5F4653F896
:10447000041B0E930A9BDD171A462B46C1E9002345
:10448000FFF77BBA0E9A012352F8044B00250E92D7
:10449000FFF74CBB0E9B002553F8044B0E93FFF720
:1044A00040BBDDE914010B46024604F057F8014613
:1044B000002840F0DD85612E00F08285412E00F05D
:1044C0007B82099B26F020055A1C089500F0CC85BC
:1044D000472D00F0A385DDE91401079B43F48073A9
:1044E00012930B46002BC0F2398600220F931E92C6
:1044F0000D920C90462D0C9A00F07A84452D4FF0C9
:1045000002000F9B40F05984099900904C1C28A987
:1045100025A8049124A9CDE902100194484600F091
:10452000D7FF07460444129B079D079300220023F0
:104530000C980F9903F0E0FF002800F02B8323462E
:10454000DB1B1393089B472B00F0F682089B462B3E
:1045500000F07A84249B1093109B089A013B412A17
:10456000249300F0F5850021F2B2002B8DF89820FD
:10457000B6BF2D222B22109B8DF89920B8BFC3F116
:104580000103092B40F3D5850DF1A70E72469C4619
:10459000C24C6046114684FB0C234FEAEC72C2EB1E
:1045A000A30202EB8203ACEB43033033632894464F
:1045B00001F8013C01F1FF32EBDC63463033D8B245
:1045C0008B1E9E4502F8010C40F228860DF19A03DD
:1045D00001E012F8010B964503F8010BF9D10DF13A
:1045E000A9030DF19A025B1A134426AA9B1A1B9386
:1045F000139B1B9A012B1A440C9240F3B2850C9B1F
:10460000179A13440C9300231293169310930C9B48
:1046100025F4806545F4807223EAE37307920893DA
:104620001E9B002B40F0AF829DF88B200993FFF773
:10463000F0B9079B0893FFF7E6BA994B1993079BCC
:10464000990675D50E9B073323F00703F3E802455F
:104650000E93079AD7070AD554EA050307D03023EB
:1046600042F002028DF88D6007928DF88C30079A27
:10467000022322F480620892FFF758BA894B1993FB
:10468000DDE7514648462AAA03F070FC00287FF473
:1046900032AC2C9C0DF1B408FFF739B9D146DA469B
:1046A000DDF824B001350F9B3444072DCDE92B54A0
:1046B000C8E900367FF76DAC514648462AAA03F098
:1046C00055FC00287FF417ACDDE92B540DF1B4083C
:1046D00061E443F020039BF8016007930BF1010BA9
:1046E000FFF70CB8514648462AAA03F03FFC0028C1
:1046F0007FF401AC2C9C0DF1B408FFF758BB43F4D8
:1047000000739BF8016007930BF1010BFEF7F6BFF6
:10471000099B3A46062B28BF06230997129716973E
:1047200010970D970893604F0E940C93FFF771B993
:10473000079BDA0640F183800E9B002553F8044B5B
:104740000E9386E7514648462AAA03F00FFC00283C
:104750007FF4D1ABDDE92B540DF1B408FFF7F5BBC5
:10476000514648462AAA03F001FC00287FF4C3AB57
:10477000DDE92B540DF1B408FFF7F4BB0022089BD0
:10478000CDF81CB003F480630C96CDF834A09346AA
:10479000CA461E46C14656AFDDF868800BE00A22C5
:1047A00000232046294603F017FF002D08BF0A2CDE
:1047B0001BD304460D460A2200232046294603F057
:1047C0000BFF303207F8012C0BF1010B013F002EDB
:1047D000E5D098F800309B45E1D1BBF1FF0FDED06A
:1047E000002D08BF0A2C80F0EF81CDF86880CDF84D
:1047F0004CB0C8460C9ED146DDF81CB0DDF834A0A4
:10480000FFF7F7BBDBF8580002F0E6F9BBF80C3015
:10481000FFF781BB514648462AAA1E9303F0A6FB28
:1048200000287FF468AB9DF88B202C9C1E9B0DF11B
:10483000B408FFF749B8D146B346FFF75DBB079B05
:104840005B0665D50E9B002553F8044B0E93A4B26E
:10485000FFE6514648462AAA03F088FB00287FF469
:104860004AAB2C9C0DF1B408FFF78EBA0F4A2B9B74
:104870000F9201330F9A2C44072BCDE92B34C8E952
:1048800000257FF759A82CE40E9B0A9953F8042BB6
:104890005F4611600E93FFF770B800BF67666666EB
:1048A000A48F0020B88F0020CC8F0020E88F00203C
:1048B000102B40F393845146BC4ACA4609971026F0
:1048C000174689462B9B0F9205E008F10808103D1A
:1048D000102D40F32A8201331034072BCDE92B34FD
:1048E000C8E90076F1DD494650462AAA03F03EFBAE
:1048F000002840F01383DDE92B340DF1B408E6E71E
:104900003846FEF729FE2B4602460995FFF7EEB81A
:10491000079B002513F4007F0E9B53F8044B0E9366
:1049200018BFE4B295E60E9A089B52F8044B13F4B4
:10493000007F4FF000054FF001030E9218BFE4B264
:10494000FFF7F4B8079B002513F4007F0E9B53F884
:10495000044B0E9318BFE4B2FFF7E3B8079B13F4C0
:10496000007F0E9B53F8044B18BF64B2E5170E93FB
:1049700022462B46FFF771B88C4B2B9A0F93FFF70B
:10498000A5BA484651462AAA03F0F0FA00283EF498
:10499000FDAFFFF7B6BA139ABD18AD1BD31A9D42EF
:1049A000A8BF1D464FE40E9B0A9953F8042B5F469F
:1049B00011800E93FEF7E1BF30238DF88C30582321
:1049C0008DF88D30079B43F00204099B632B00F3A5
:1049D000ED8200233DAF0D93079BDDE9141243F4F4
:1049E000817312931346002B26F020050794C0F222
:1049F00055820F93002308950C911E93612E00F0B1
:104A00007B83412E7FF476AD24AA0C980F9903F096
:104A1000E1F900224FF07F53FEF738FA04460D46C5
:104A200000220023CDE9104503F066FD08B1012303
:104A300024935F4B0C93099BCDF83CB0013B13963C
:104A4000CDF87C90CDF880A02197BA46DDE91067BB
:104A50009946DDF830B0CDF8588006E000220023FA
:104A600003F04AFD09F1FF39E8B90022514B304605
:104A70003946FEF70BFA0D46044603F085FD8046E5
:104A8000FEF79AF90B46024629462046FEF746F8FD
:104A90001BF80830B9F1FF3F554606460F464C4615
:104AA0000AF8013BDAD1304639460022424BDDF8A4
:104AB0003CB0139ECDF83CA0CDF84C80CDE9100160
:104AC000DDE91F9ADDF85880219F03F03DFD0028A5
:104AD00040F05082DDE910010022374B03F00CFD5D
:104AE00018B1139BDB0700F14582002C08DB302254
:104AF0000F99631C0B4401F8012B8B42FBD10F91E2
:104B00000F9B079DDB1B1393129B07931AE55146DE
:104B100048462AAA03F02AFA00287FF4ECA9DDE926
:104B20002B34249A0DF1B408FFF7CEBADBF8580005
:104B300002F052F8FEF77ABE249BD81C109302DBD9
:104B4000099A934204DD023E26F02003089303E510
:104B5000109B13998B42C0F2AB81EA0740F1E482CB
:104B6000179A13440C936E0540F1E182109B002BC1
:104B700000F3948267260C9B23EAE37308930023D7
:104B8000129316934CE52D2200238DF88B20099368
:104B9000FEF742BF289BA342BFF4D2AC30215A1C7F
:104BA00028921970289B9C42F9D8C9E4E88F00200C
:104BB000B88F0020000030400000E03F2D231A464F
:104BC0008DF88B30FEF713BF1D9B1C99FF1A1A46F8
:104BD0003846FEF7EFFC98F801300BB108F10108F8
:104BE0000A2200232046294603F0F6FC4FF0000B72
:104BF000DFE5139B4246DDF85880FB180993CDF89A
:104C000030B00F972046DDF874B01A9F129BB8F1B0
:104C1000000F2DD0002B6DD1013F08F1FF382B9BE9
:104C20001C9901335844072BC2E9001B2C902B938D
:104C300064DC083209993B788D1B9D42A8BF1D4654
:104C4000002D0ADD2B9B28440133072BC2E90065A8
:104C50002C902B935DDC3B780832002DB4BF1D46B1
:104C60005D1B002D15DC1E44129BB8F1000FD1D145
:104C7000002B3FD1139B1A970F9F9046FB189E4223
:104C8000324628BF1A4604461646DDF830B0FFF714
:104C9000AFBA102D40F36A822B9910240B4604E022
:104CA000103D102D02F1080216DD0133B04910301D
:104CB000072BCDE92B30C2E90014F1DD51464846FF
:104CC0002AAA03F053F900287FF415A9DDE92B3057
:104CD000103D102D2DAAE8DC19464B1CA449284490
:104CE000072BCDE92B30C2E900153EDC3B780832BA
:104CF0001E44B9E7129B013B129390E75146484688
:104D00002AAA03F033F900287FF4F5A82C982DAADD
:104D100090E7514648462AAA03F028F900287FF474
:104D2000EAA83B782C982DAA97E74A46D1469246A6
:104D3000099F01330F9A2C44072BCDE92B34C8E986
:104D4000002500F3428108F10808FFF74ABA5146EE
:104D500048462AAA03F00AF900287FF4CCA8249A2E
:104D60002C9C0DF1B408FFF748BB514648462AAACF
:104D700003F0FCF800287FF4BEA83B782C982DAAFD
:104D80001E4471E7514648462AAA03F0EFF800286E
:104D90007FF4B1A82C9C0DF1B408FFF71ABA514664
:104DA00048462AAA03F0E2F800287FF4A4A8249B2E
:104DB0002C9C0DF1B408FFF731BA099C28A9CDE964
:104DC0000004049125A824A9CDE90210484600F06A
:104DD0007FFB472D07461AD1079D2B46DB0700F1C5
:104DE000A180129A289B079247220892FFF7A8BB3E
:104DF0000320099C28A9CDE90004049125A824A931
:104E0000CDE902100F9B484600F062FB0746099B64
:104E1000462D07EB03047FF486AB3B78302B00F084
:104E2000B081249B129A079D1C440792FFF77EBB1A
:104E3000099B9DF88B2008930C9309900E94129077
:104E400016901090FEF7E5BD249A002A109240F3C8
:104E5000AF81099905F001030B4340F047816626B5
:104E6000109B0C936A0500F11A810C9B23EAE373F3
:104E7000089384E6DDE92B21FFF7F3B85146484655
:104E80002AAA03F073F800287FF435A8249B139A0C
:104E90002C9C0DF1B408D31AFFF7D5B908952D2332
:104EA000DDE914121E9302F100430C910F93A5E566
:104EB000139B179A9A18109B0C92002B40F3588161
:104EC0006726CFE700230993FEF71ABC554210323C
:104ED00080F2A1815146264ACA46099710261746F4
:104EE00089460F9204E008F10808103D102D79DD85
:104EF00001331034072BCDE92B34C8E90076F2DDFD
:104F0000494650462AAA03F031F838B9DDE92B3476
:104F10000DF1B408E9E7D146FEF7EEBFCB46D14626
:104F2000FEF7EABF099B079DFC18129B07934723D6
:104F30000893FFF7FBBA2B9BFFF71EB9DBF8643031
:104F4000DB0707D4BBF80C309F0503D4DBF858000F
:104F500001F042FE4FF0FF330A93FEF7DFBF044B30
:104F60002B9A0F93FEF779BF079B0893FFF78EB834
:104F7000E88F00200F9B0C99289513F8012CC97B12
:104F80008A4240F02981302003F8010C289B5A1EE8
:104F9000289213F8012C9142F6D0392A0BBF0C9AB3
:104FA0000132927AD2B203F8012CA9E54846591C85
:104FB00001F08CFE0746002800F024810D900BE5DF
:104FC00030238DF88C307823FAE4514648462AAADB
:104FD00002F0CCFF00287EF48EAF2C9C0DF1B408BB
:104FE000FFF7FFB84A46D1469246099F01330F9A10
:104FF0002C44072BCDE92B34C8E900257FF713AAF1
:10500000514648462AAA02F0B1FF00287EF473AF49
:10501000DDE92B340DF1B408FFF759B8002B08BFB8
:1050200001230993079B43F480731293159B002B74
:105030000C93C0F2BB800224099D28A825AA24ABAA
:10504000CDE90320CDE90045DDE914450293224670
:105050002B4648460D9100F03BFA0C9B07460F93F8
:105060000D9B0C941E93B7E606230993FFF733BA02
:10507000159B0320002BB8BF2D234FF00001BABFB2
:105080001A468DF88B309DF88B20664F664B089042
:105090000D91FEF7B2BCD346FEF733BF67261A99CF
:1050A0000B78FF2B00F0AA800024109A204603E022
:1050B00001300131FF2B08D0934206DAD21A4B7827
:1050C000002BF5D10B780134F4E71A911092169069
:1050D0001294129A169B0C9913441D9A02FB031307
:1050E0000C9323EAE3730893FFF79ABA179B66269B
:1050F000D31819440C91B5E624AA0C980F9902F024
:1051000069FE00224FF07F53FDF7C0FE04460D46B6
:1051100000220023CDE9104503F0EEF908B1012388
:105120002493424B0C9386E4109B0C931BE567265B
:105130009BE6002937D130228DF89A200DF19B0291
:10514000303302F8013B26ABD31A1B93FFF750BA5A
:1051500006F10F020121D2B2FFF707BA00230D9327
:105160009DE6E9077FF54FAAFFF749BA2B99B4E509
:10517000C3F101031A4422EAE27367260C920893F2
:10518000FDE4002200230C980F9903F0B5F90028E4
:105190007FF447AE099BC3F10103249342E6244BFD
:1051A0000F93FFF77FBA0DF19A02C9E70D9076E6EB
:1051B000099A05F0010513462B4304D10123662605
:1051C00008930C93DBE4179B662601331A4422EA0A
:1051D000E2730C920893D2E40F9BDEE6144A2B9BF9
:1051E0000F92A6E50E9B9BF8016053F8040B9346C3
:1051F00040EAE07009900E93FEF780BA0023129304
:10520000169366E7BAF80C30D34643F04003AAF889
:105210000C30FEF776BE064A0F92E7E602231B9398
:10522000FFF7E6B99C8F0020A08F0020A48F0020FC
:10523000E88F0020F0B50C464FF4806C4FF0000E64
:10524000154606461F46636EADF26C4DE2898989AC
:105250001993E369ADF80E20626A21F00201079309
:1052600016A81AABADF80C10CDF818E0099200930F
:105270000493CDF808C0CDF814C001F0A7FC2A466D
:105280003B4669463046FEF7C9F9051E07DB304646
:10529000694601F0FBF8002818BF4FF0FF35BDF854
:1052A0000C305B0603D5A38943F04003A381169815
:1052B00001F08EFC28460DF26C4DF0BD38B5324B36
:1052C000054618680C4610B1836B002B3CD0B4F92E
:1052D0000C3018079AB20CD52169A9B112F001005F
:1052E00022D000256069A5604042A06111B3002072
:1052F00038BDD1063FD5520729D4216943F00803B0
:10530000A3819AB20029E9D102F42070B0F5007FA0
:10531000E4D02846214601F08FFCB4F90C30216915
:105320009AB212F00100DCD1950758BF6069A06005
:105330000029DCD1120658BF0846D9D543F04003F6
:105340004FF0FF30A38138BD01F0FCF8BFE7216BBF
:1053500051B104F14002914204D0284601F092F983
:10536000B4F90C30002222630022216923F02403C7
:10537000C4E90012C2E7092243F040032A604FF05B
:10538000FF30A38138BD00BF74920020024B13B1DF
:10539000024800F005B8704700000000B965002021
:1053A000002301461A46184602F0EABD2DE9F04FE7
:1053B00003690D6983B0AB42C0F28480013D01F105
:1053C000140600F1140956F8253059F82520013348
:1053D0008E46A90000919A4209EB85018246B2FBF4
:1053E000F3F706EB8508019137D30022B446144643
:1053F00048465CF8043B01681FFA83FB07FB0B225D
:105400001B0C4FEA124B07FB03BB93B2E31A8AB2A1
:105410001FFA8BF41344C4EB114404EB23449BB2F6
:1054200043EA0443E04540F8043B4FEA24444FEA92
:105430001B42DED2009B59F8033073B9019B043B39
:10544000994504D307E0994505F1FF3503D253F898
:105450000429002AF7D0CAF810507146504602F0CD
:10546000BBF900282ADB48460023013756F8041B05
:1054700004688AB29A1A0B0CA1B20A44C3EB144313
:1054800003EB224392B242EA0342B04540F8042BB8
:105490004FEA2343EAD259F8252009EB85036AB97C
:1054A000043B994504D307E0994505F1FF3503D244
:1054B00053F80429002AF7D0CAF81050384603B030
:1054C000BDE8F08F002003B0BDE8F08F00000000C1
:1054D0002DE9F04F16461F46016C9BB00446CDE9FE
:1054E0000467279D41B10123426C9340C1E9012328
:1054F00001F076FF00232364B7F10009B4BF012354
:1055000000232B60764BBCBF29F00049CDF81490E6
:1055100033EA090300F0AB80DDE9042310461946A5
:1055200000220023CDE9060102F0E6FF804670B1BB
:105530000123269A1360289B002B00F0C58269483E
:105540001860431E039303981BB0BDE8F08F18AAA0
:1055500019ABCDE90032DDE90623204602F0F6F969
:105560005FEA1955824640F09880DDE91885454488
:1055700005F23240202840F38983C0F1400305F250
:10558000124009FA03F926FA00F049EA0000FDF793
:1055900003FC0122013D1092A1F1F8710022524B4F
:1055A000FDF7BCFA48A3D3E90023FDF76FFC48A33D
:1055B000D3E90023FDF7B4FA064628460F46FDF767
:1055C000FBFB45A3D3E90023FDF760FC02460B4635
:1055D00030463946FDF7A4FA06460F4602F0D4FFDE
:1055E0000022834600233046394602F08FFF002810
:1055F00040F05D82BBF1160F00F24B82DDE906013F
:105600003A4B03EBCB03D3E9002302F07FFF0028E2
:1056100072D00023A8EB0505B5F101090BF1FF3BA2
:105620000D9300F13E8200230993BBF1000F6BDA6A
:10563000099BCDF820B0A3EB0B030993CBF100033A
:105640000C93249B4FF0000B092B65D8052B40F3DE
:105650001B830025043B2493249B023B032B00F275
:105660006286DFE813F03B0438042F040F0442F293
:105670000F73269AC9F31309136059EA06031CD164
:10568000289B002B00F04686194B03930833289A79
:10569000039813601BB0BDE8F08FDDE90612C2F37A
:1056A0001303084643F07F51CDF84080A5F2FF3543
:1056B000DDF8608041F4401170E7289B002B40F03A
:1056C000D1830C4B03933EE761436F63A787D23FBF
:1056D000B3C8608B288AC63FFB799F501344D33FE1
:1056E0000000F07FD58F00200000F83F30900020B0
:1056F000FC8F0020F88F0020A8EB0505B5F101090B
:1057000000F196840D90099000230C93249BD944BA
:10571000092BCDF820B099D94FF0FF360125002391
:10572000CDE90A65249325930021119661642046F2
:1057300001F030FE0E2E0390206400F2F280002D66
:1057400000F0EF800899002940F34084B94B01F044
:105750000F0203EBC203CA054FEA2115D3E9006724
:1057600040F1DB83DDE90601B34B05F00F05D3E91A
:105770000823FDF7B5FC0323CDE912010E93A5B173
:105780001494DFF8B4820E9CEB0708D5D8E9002307
:1057900030463946FDF77AFB06460F4601346D1058
:1057A00008F10808F0D10E94149C3B46DDE9120183
:1057B0003246FDF795FC074688460D9B43B1002213
:1057C000384641469D4B02F0A1FE002840F02E8550
:1057D0000E98FDF7F1FA3A464346FDF757FB984B12
:1057E0000022FDF79DF9A1F15073CDE90E010F9351
:1057F0000A9B002B00F0CC83089B14930A9B129306
:105800000B9B002B00F09684129A8A4B002003EB2E
:10581000C20353E902238B49FDF762FCDDE90E2345
:10582000FDF77CF902460B4638464146CDE90E238A
:1058300002F0AAFE1590FDF7BFFA02460B46384665
:105840004146FDF76BF9159B039D303306460F4625
:10585000024605F8013B0B46DDE90E0102F074FE3D
:10586000002840F024850023CDE916B9CDF854A0D6
:105870009846DDE90EABDDF848900E9428E0C84567
:105880004ADA5046594600226F4BFDF7FFFA0022D4
:105890006D4B82468B4630463946FDF7F7FA0F4688
:1058A000064602F071FE0446FDF786FA02460B46F4
:1058B00030463946FDF732F9303452465B4605F83A
:1058C000014B06460F4602F021FE002840F0EC8412
:1058D00032463B4600205949FDF720F952465B46C7
:1058E00002F014FE08F101080028C8D0149BDDF86E
:1058F00054A00E9C039A089302E0954200F0BE84E7
:10590000A94615F8013D392BF7D00133DBB22B70D6
:10591000089B01330893A0E1DDF854A00E9CDDE95B
:1059200016B9199B002BC0F29380089A0E2A00F337
:105930008F80404B03EBC203D3E90023CDE904235E
:10594000259B002B1ADA0A9B002B17DC40F0A7845A
:10595000DDE9040100223D4BFDF798FA02460B46B3
:10596000DDE9060102F0DCFDDDF82880454600286F
:1059700000F04182259B039FDE4344E2DDE904679A
:10598000DDE9060132463B46FDF7AAFB02F0FCFDCD
:105990008046FDF711FA32463B46FDF777FA0B4693
:1059A0000246DDE90601FDF7B9F8039D08F1300371
:1059B00005F8013B0A9B012B00F07183CDF818A07C
:1059C0004FF00109AA469B4609941BE032463B462C
:1059D00020462946FDF784FB02F0D6FD8046FDF700
:1059E000EBF932463B46FDF751FA0B460246294693
:1059F0002046FDF793F808F13003D9450AF8013B3A
:105A000000F049830022104BFDF740FA00220023EA
:105A100004460D4602F070FD09F101090028D5D0B9
:105A20005546099CDDF818A0089BA9460133089348
:105A300013E100BF30900020089000200000F03FEC
:105A400000001C400000E03F000024400000144023
:105A50000B9A002A3ED0249A012A40F37C820A9BAA
:105A60005F1E0C9BBB4280F256820C9B0C97FB1A6C
:105A700000279B440A9B002BC0F23F83099A99445C
:105A800016461A4409920121204601F041FD0546BF
:105A900023E00123A8EB0505B5F101090D937FF57E
:105AA000C2ADC5F101034FF000090993BDE55846A9
:105AB000FDF782F932463B4602F01EFD00287FF4D6
:105AC00099AD0BF1FF3B95E5BF4B039303981BB0DA
:105AD000BDE8F08F0C9F099E0B9D002E0CDDB9F1E7
